:100000000C948A000C949C000C949C000C949C0012
:100010000C949C000C949C000C949C000C949C00F0
:100020000C949C000C949C000C949C000C94C603B3
:100030000C949C000C949C000C949C000C949C00D0
:100040000C949C000C949C000C949C000C949C00C0
:100050000C949C000C010C010C010C010C010C0116
:100060000C010C01490149014901490149014901BA
:1000700049014901860186018601860186018601C2
:1000800086018601C301C301C301C301C301C301CA
:10009000C301C3013802380238023802380238027C
:1000A0003802380275027502750275027502750212
:1000B00075027502B202B202B202B202B202B2021A
:1000C000B202B202EF02EF02EF02EF02EF02EF0222
:1000D000EF02EF02610361036103610361036103E6
:1000E000610361037703770377037703770377036C
:1000F000770377038F038F038F038F038F038F03A0
:100100008F038F03A703A703A703A703A703A703CF
:10011000A703A70311241FBECFE5D8E0DEBFCDBFE4
:1001200010E0A0E6B0E001C01D92A236B107E1F7F1
:100130000E9407040C943D040C940000CF93DF93BD
:10014000CDB7DEB78AE390E02FEFFC01208387E391
:1001500090E0FC01108284E390E02FEFFC0120830B
:1001600081E390E0FC0110828BE390E0FC011082BF
:1001700088E390E0FC01108285E390E0FC011082AE
:1001800082E390E0FC011082DF91CF910895CF933C
:10019000DF9300D01F92CDB7DEB79A8389836B833C
:1001A0008B81882331F489819A81FC01108281E05E
:1001B00010C08B81813039F489819A812FEFFC0145
:1001C000208381E006C089819A812FEFFC01208382
:1001D00080E00F900F900F90DF91CF910895CF9313
:1001E000DF9300D0CDB7DEB789836A838981882FFA
:1001F00090E0AA2797FDA095BA2F40E050E02FE1AC
:1002000030E0841B950B2817390708F4F9C0865D88
:100210009F4FFC010C9437048A818823D9F48AE328
:1002200090E02AE330E0F9012081622F2981222F1A
:1002300030E0A9014770552721E030E0042E02C0CC
:10024000220F331F0A94E2F720952623FC01208316
:1002500081E0D7C08A818130D1F48AE390E02AE33B
:1002600030E0F9012081622F2981222F30E0A9019D
:100270004770552721E030E0042E02C0220F331FC3
:100280000A94E2F7262BFC01208381E0BAC080E0CB
:10029000B8C08A818823D9F487E390E027E330E06F
:1002A000F9012081622F2981222F30E0A9014770B6
:1002B000552721E030E0042E02C0220F331F0A949C
:1002C000E2F720952623FC01208381E09AC08A81F1
:1002D0008130D1F487E390E027E330E0F901208119
:1002E000622F2981222F30E0A9014770552721E094
:1002F00030E0042E02C0220F331F0A94E2F7262BAF
:10030000FC01208381E07DC080E07BC08A8188235E
:10031000D9F484E390E024E330E0F9012081622FF6
:100320002981222F30E0A9014770552721E030E0D4
:10033000042E02C0220F331F0A94E2F720952623D1
:10034000FC01208381E05DC08A818130D1F484E3A7
:1003500090E024E330E0F9012081622F2981222FEF
:1003600030E0A9014770552721E030E0042E02C09B
:10037000220F331F0A94E2F7262BFC01208381E031
:1003800040C080E03EC08A818823D9F481E390E0B8
:1003900021E330E0F9012081622F2981222F30E012
:1003A000A9014770552721E030E0042E02C0220F3A
:1003B000331F0A94E2F720952623FC01208381E075
:1003C00020C08A818130D1F481E390E021E330E0E4
:1003D000F9012081622F2981222F30E0A901477085
:1003E000552721E030E0042E02C0220F331F0A946B
:1003F000E2F7262BFC01208381E003C080E001C0EE
:1004000080E00F900F90DF91CF910895CF93DF930D
:1004100000D01F92CDB7DEB79A8389836B83898121
:100420009A812B81FC01208381E00F900F900F9027
:10043000DF91CF910895CF93DF9300D0CDB7DEB792
:1004400089836A838981882F90E0AA2797FDA095E8
:10045000BA2F40E050E02FE130E0841B950B2817C5
:10046000390708F4F9C0865B9F4FFC010C943704F0
:100470008A818823D9F48BE390E02BE330E0F90103
:100480002081622F2981222F30E0A9014770552752
:1004900021E030E0042E02C0220F331F0A94E2F75D
:1004A00020952623FC01208381E0D7C08A818130FA
:1004B000D1F48BE390E02BE330E0F9012081622F4F
:1004C0002981222F30E0A9014770552721E030E033
:1004D000042E02C0220F331F0A94E2F7262BFC01E0
:1004E000208381E0BAC080E0B8C08A818823D9F433
:1004F00088E390E028E330E0F9012081622F298130
:10050000222F30E0A9014770552721E030E0042E6A
:1005100002C0220F331F0A94E2F720952623FC0124
:10052000208381E09AC08A818130D1F488E390E011
:1005300028E330E0F9012081622F2981222F30E069
:10054000A9014770552721E030E0042E02C0220F98
:10055000331F0A94E2F7262BFC01208381E07DC043
:1005600080E07BC08A818823D9F485E390E025E38D
:1005700030E0F9012081622F2981222F30E0A9018A
:100580004770552721E030E0042E02C0220F331FB0
:100590000A94E2F720952623FC01208381E05DC0C8
:1005A0008A818130D1F485E390E025E330E0F901E0
:1005B0002081622F2981222F30E0A9014770552721
:1005C00021E030E0042E02C0220F331F0A94E2F72C
:1005D000262BFC01208381E040C080E03EC08A8160
:1005E0008823D9F482E390E022E330E0F90120810E
:1005F000622F2981222F30E0A9014770552721E081
:1006000030E0042E02C0220F331F0A94E2F7209537
:100610002623FC01208381E020C08A818130D1F42F
:1006200082E390E022E330E0F9012081622F29810A
:10063000222F30E0A9014770552721E030E0042E39
:1006400002C0220F331F0A94E2F7262BFC012083FD
:1006500081E003C080E001C080E00F900F90DF9147
:10066000CF910895CF93DF9300D01F92CDB7DEB71F
:1006700089837B836A8389810F900F900F90DF912C
:10068000CF910895CF93DF9300D01F92CDB7DEB7FF
:1006900089837B836A838981882F90E0AA2797FDCD
:1006A000A095BA2F40E050E02FE130E0841B950B7D
:1006B0002817390708F463C086599F4FFC010C9432
:1006C000370489E390E0FC018081882F90E0298144
:1006D000222F30E002C0959587952A95E2F7282FC2
:1006E00021708A819B81FC01208381E049C086E3DF
:1006F00090E0FC018081882F90E02981222F30E05A
:100700002770332702C0959587952A95E2F7282F01
:1007100021708A819B81FC01208381E031C083E3C9
:1007200090E0FC018081882F90E02981222F30E029
:100730002770332702C0959587952A95E2F7282FD1
:1007400021708A819B81FC01208381E019C080E3B4
:1007500090E0FC018081882F90E02981222F30E0F9
:100760002770332702C0959587952A95E2F7282FA1
:1007700021708A819B81FC01208381E001C080E09F
:100780000F900F900F90DF91CF9108951F920F92CD
:1007900000905F000F9211242F933F938F939F93AC
:1007A000EF93FF93CF93DF93CDB7DEB780916000D7
:1007B0009091610001969093610080936000809118
:1007C0006000909161008F30910599F48BE390E087
:1007D0002BE330E0F901308121E02327FC01208365
:1007E000109261001092600082E590E02FE9FC0118
:1007F0002083DF91CF91FF91EF919F918F913F9156
:100800002F910F9000925F000F901F901895CF933B
:10081000DF93CDB7DEB70E949E000E941004FFCF89
:10082000CF93DF93CDB7DEB782E590E02FE9FC01EF
:10083000208383E590E023E530E0F9012081256005
:10084000FC01208389E590E029E530E0F901208171
:100850002160FC0120838FE590E02FE530E0F90175
:1008600020812068FC012083DF91CF910895EE0F55
:0E087000FF1F0590F491E02D0994F894FFCF3E
:00000001FF
