:100000000C942A000C9447000C9447000C94470071
:100010000C9447000C9447000C9447000C94470044
:100020000C9447000C9447000C9447000C94470034
:100030000C9447000C9447000C9447000C94470024
:100040000C9447000C9447000C9447000C94470014
:100050000C94470011241FBECFE5D8E0DEBFCDBF12
:1000600010E0A0E6B0E0E4E1F9E002C005900D92F6
:10007000A03AB107D9F710E0A0EAB0E001C01D92A4
:10008000A13AB107E1F70E9423030C9488040C9471
:100090000000CF93DF9300D01F92CDB7DEB79A83D5
:1000A00089836B838B81882331F489819A81FC0158
:1000B000108280E010C08B81813039F489819A816F
:1000C0002FEFFC01208380E006C089819A812FEF09
:1000D000FC0120838FEF0F900F900F90DF91CF9155
:1000E0000895CF93DF9300D000D0CDB7DEB79A83C9
:1000F00089836B834C838C818823C1F489819A81A5
:10010000FC018081482F8B81282F30E081E090E036
:1001100002C0880F991F2A95E2F780958423282F23
:1001200089819A81FC01208380E01BC08C81813011
:10013000B9F489819A81FC018081482F8B81282F15
:1001400030E081E090E002C0880F991F2A95E2F725
:10015000842B282F89819A81FC01208380E001C0B3
:100160008FEF0F900F900F900F90DF91CF91089528
:10017000CF93DF9300D01F92CDB7DEB79A838983E8
:100180006B8389819A812B81FC01208380E00F9011
:100190000F900F90DF91CF910895CF93DF9300D010
:1001A00000D0CDB7DEB79A8389836B834C838C8173
:1001B0008823C1F489819A81FC018081482F8B8139
:1001C000282F30E081E090E002C0880F991F2A9527
:1001D000E2F780958423282F89819A81FC0120836E
:1001E00080E031C08C818130B9F489819A81FC0131
:1001F0008081482F8B81282F30E081E090E002C081
:10020000880F991F2A95E2F7842B282F89819A81DC
:10021000FC01208380E017C089819A81FC018081E4
:10022000482F8B81282F30E081E090E002C0880FBA
:10023000991F2A95E2F780958423282F89819A8136
:10024000FC0120838FEF0F900F900F900F90DF91A4
:10025000CF910895CF93DF931F92CDB7DEB78983F7
:1002600089810F90DF91CF910895CF93DF9300D0D4
:10027000CDB7DEB789836A838A81883070F489813B
:10028000882F90E02A81222F30E0022E02C095951F
:1002900087950A94E2F7817001C08FEF0F900F905D
:1002A000DF91CF910895CF93DF93CDB7DEB78AE387
:1002B00090E02FEFFC01208387E390E0FC011082A7
:1002C00084E390E0FC01108281E390E0FC01108265
:1002D0008BE390E0FC01108288E390E0FC01108247
:1002E00085E390E0FC01108282E390E0FC01108243
:1002F000DF91CF910895CF93DF931F92CDB7DEB7F3
:1003000089838AE390E0FC0180818F3F09F04DC032
:1003100081E390E0FC018081882F90E09C012170B6
:10032000332781E390E0FC0180818695882F90E05F
:10033000822393239C012170332781E390E0FC0109
:10034000808186958695882F90E082239323817003
:100350009927009751F140E062E08BE390E00E9422
:10036000CD0040E060E08BE390E00E94CD0040E0F3
:1003700061E08BE390E00E94CD00698182E390E030
:100380000E94B80041E062E08BE390E00E94CD0063
:1003900062E070E080E090E00E94DE0240E062E017
:1003A0008BE390E00E94CD0003C081E08093A00029
:1003B00080E00F90DF91CF910895CF93DF931F924C
:1003C000CDB7DEB789838AE390E0FC0180818F3F5F
:1003D00009F04DC081E390E0FC018081882F90E01E
:1003E0009C012170332781E390E0FC018081869598
:1003F000882F90E0822393239C012170332781E38F
:1004000090E0FC01808186958695882F90E082237C
:10041000932381709927009751F140E062E08BE3CC
:1004200090E00E94CD0041E060E08BE390E00E940C
:10043000CD0040E061E08BE390E00E94CD00698157
:1004400082E390E00E94B80041E062E08BE390E03C
:100450000E94CD0062E070E080E090E00E94DE0249
:1004600040E062E08BE390E00E94CD0003C081E0B9
:100470008093A00080E00F90DF91CF910895CF93FB
:10048000DF93CDB7DEB76FEF8AE390E00E944900BB
:100490006FEF81E390E00E94490062E370E080E04A
:1004A00090E00E94DE0288E30E947B0162E070E03F
:1004B00080E090E00E94DE028CE00E947B0162E01E
:1004C00070E080E090E00E94DE0281E00E947B010B
:1004D00080E0DF91CF910895CF93DF93CDB7DEB762
:1004E00081E00E947B0180E0DF91CF910895CF935E
:1004F000DF9300D01F92CDB7DEB79B838A8319822A
:100500000EC08981882F90E02A813B81820F931F42
:10051000FC0180810E94DD0189818F5F898389814F
:10052000882F90E02A813B81820F931FFC018081FC
:10053000882339F780E00F900F900F90DF91CF91D3
:100540000895CF93DF9300D0CDB7DEB789836A8358
:100550008A818031A0F48981813029F48A81806880
:100560000E947B010FC08981823029F48A81806CCE
:100570000E947B0107C081E08093A00003C081E05E
:100580008093A00080E00F900F90DF91CF910895AD
:10059000CF93DF93CDB7DEB780E40E947B0180E08C
:1005A000DF91CF910895CF93DF93CDB7DEB780E889
:1005B0000E947B0180E0DF91CF910895CF93DF937C
:1005C000CDB7DEB728970FB6F894DEBF0FBECDBF0C
:1005D0006D837E838F83988725C019821A821B8240
:1005E0001C820CC0000089819A81AB81BC8101967C
:1005F000A11DB11D89839A83AB83BC8389819A81B4
:10060000AB81BC818F369105A105B10558F38D8171
:100610009E81AF81B8850197A109B1098D839E8321
:10062000AF83B8878D819E81AF81B8850097A10582
:10063000B10599F628960FB6F894DEBF0FBECDBF70
:10064000DF91CF910895CF93DF93CDB7DEB7C75435
:10065000D1090FB6F894DEBF0FBECDBF80E48C8306
:1006600080E88D831B8280E88E8380EC8F836FEF20
:100670008AE390E00E9449006FEF81E390E00E94DE
:10068000490060E087E390E00E94490040E060E0BC
:1006900084E390E00E94710080E4E0E6F0E0DE0197
:1006A000189601900D928A95E1F70E943F0281E031
:1006B0000E947B0119822BC01A8223C09C818B81EE
:1006C000890F0E947B018981282F30E08A81882F41
:1006D00090E0220F331F220F331F220F331FAE0172
:1006E0004F5F5F4F240F351F820F931F0796FC014A
:1006F00080810E94DD018B818F5F8B838A818F5F78
:100700008A838A818830D0F289818F5F8983898149
:10071000883090F281E00E947B0180E80E947B019A
:10072000198206C089810E94DD0189818F5F8983DA
:1007300089818830B8F364EF71E080E090E00E9436
:10074000DE0281E00E947B0182EC0E947B01198223
:1007500006C089810E94DD0189818F5F898389813B
:100760008830B8F364EF71E080E090E00E94DE0230
:1007700081E00E947B0184E80E947B01198206C00F
:1007800089810E94DD0189818F5F89838981883019
:10079000B8F364EF71E080E090E00E94DE0281E057
:1007A0000E947B0185EC0E947B01198206C0898131
:1007B0000E94DD0189818F5F898389818830B8F348
:1007C00064EF71E080E090E00E94DE0281E00E9430
:1007D0007B0187E80E947B01198206C089810E9403
:1007E000DD0189818F5F898389818830B8F364EF67
:1007F00071E080E090E00E94DE0281E00E947B01D7
:1008000088EC0E947B01198206C089810E94DD016B
:1008100089818F5F898389818830B8F364EF71E0C3
:1008200080E090E00E94DE0281E00E947B0187E888
:100830000E947B01198206C089810E94DD018981A5
:100840008F5F898389818830B8F364EF71E080E03D
:1008500090E00E94DE0281E00E947B0185EC0E9414
:100860007B01198206C089810E94DD0189818F5F29
:10087000898389818830B8F364EF71E080E090E08B
:100880000E94DE0281E00E947B0184E80E947B01DD
:10089000198206C089810E94DD0189818F5F898369
:1008A00089818830B8F364EF71E080E090E00E94C5
:1008B000DE0281E00E947B0182EC0E947B011982B2
:1008C00006C089810E94DD0189818F5F89838981CA
:1008D0008830B8F364EF71E080E090E00E94DE02BF
:1008E00081E00E947B0180E80E947B01198206C0A2
:1008F00089810E94DD0189818F5F898389818830A8
:10090000B8F364EF71E080E090E00E94DE0202CF75
:04091000F894FFCF89
:10091400000101010F000000001E121E0302041852
:10092400000000001F00000000001E1213121E0031
:10093400000000001F00000000040A011F00000066
:10094400000000001F00000000001E1212121E0012
:00000001FF
