:100000000C942A000C9447000C9447000C94470071
:100010000C9447000C9447000C9447000C94470044
:100020000C9447000C9447000C9447000C94470034
:100030000C9447000C9447000C9447000C94470024
:100040000C9447000C9447000C9447000C94470014
:100050000C94470011241FBECFE5D8E0DEBFCDBF12
:1000600010E0A0E6B0E0E2E5F8E002C005900D92F5
:10007000A83AB107D9F710E0A8EAB0E001C01D9294
:10008000A93AB107E1F70E94DE020C9427040C9410
:100090000000CF93DF9300D01F92CDB7DEB79A83D5
:1000A00089836B838B81882331F489819A81FC0158
:1000B000108280E010C08B81813039F489819A816F
:1000C0002FEFFC01208380E006C089819A812FEF09
:1000D000FC0120838FEF0F900F900F90DF91CF9155
:1000E0000895CF93DF9300D000D0CDB7DEB79A83C9
:1000F00089836B834C838C818823C1F489819A81A5
:10010000FC018081482F8B81282F30E081E090E036
:1001100002C0880F991F2A95E2F780958423282F23
:1001200089819A81FC01208380E01BC08C81813011
:10013000B9F489819A81FC018081482F8B81282F15
:1001400030E081E090E002C0880F991F2A95E2F725
:10015000842B282F89819A81FC01208380E001C0B3
:100160008FEF0F900F900F900F90DF91CF91089528
:10017000CF93DF9300D01F92CDB7DEB79A838983E8
:100180006B8389819A812B81FC01208380E00F9011
:100190000F900F90DF91CF910895CF93DF9300D010
:1001A00000D0CDB7DEB79A8389836B834C838C8173
:1001B0008823C1F489819A81FC018081482F8B8139
:1001C000282F30E081E090E002C0880F991F2A9527
:1001D000E2F780958423282F89819A81FC0120836E
:1001E00080E031C08C818130B9F489819A81FC0131
:1001F0008081482F8B81282F30E081E090E002C081
:10020000880F991F2A95E2F7842B282F89819A81DC
:10021000FC01208380E017C089819A81FC018081E4
:10022000482F8B81282F30E081E090E002C0880FBA
:10023000991F2A95E2F780958423282F89819A8136
:10024000FC0120838FEF0F900F900F900F90DF91A4
:10025000CF910895CF93DF931F92CDB7DEB78983F7
:1002600089810F90DF91CF910895CF93DF9300D0D4
:10027000CDB7DEB789836A838A81883070F489813B
:10028000882F90E02A81222F30E0022E02C095951F
:1002900087950A94E2F7817001C08FEF0F900F905D
:1002A000DF91CF910895CF93DF93CDB7DEB78AE387
:1002B00090E02FEFFC01208387E390E0FC011082A7
:1002C00084E390E0FC01108281E390E0FC01108265
:1002D0008BE390E0FC01108288E390E0FC01108247
:1002E00085E390E0FC01108282E390E0FC01108243
:1002F000DF91CF910895CF93DF931F92CDB7DEB7F3
:1003000089838AE390E0FC0180818F3F09F04DC032
:1003100081E390E0FC018081882F90E09C012170B6
:10032000332781E390E0FC0180818695882F90E05F
:10033000822393239C012170332781E390E0FC0109
:10034000808186958695882F90E082239323817003
:100350009927009751F140E062E08BE390E00E9422
:10036000CD0040E060E08BE390E00E94CD0040E0F3
:1003700061E08BE390E00E94CD00698182E390E030
:100380000E94B80041E062E08BE390E00E94CD0063
:1003900062E070E080E090E00E94E20340E062E012
:1003A0008BE390E00E94CD0003C081E08093A80021
:1003B00080E00F90DF91CF910895CF93DF931F924C
:1003C000CDB7DEB789838AE390E0FC0180818F3F5F
:1003D00009F04DC081E390E0FC018081882F90E01E
:1003E0009C012170332781E390E0FC018081869598
:1003F000882F90E0822393239C012170332781E38F
:1004000090E0FC01808186958695882F90E082237C
:10041000932381709927009751F140E062E08BE3CC
:1004200090E00E94CD0041E060E08BE390E00E940C
:10043000CD0040E061E08BE390E00E94CD00698157
:1004400082E390E00E94B80041E062E08BE390E03C
:100450000E94CD0062E070E080E090E00E94E20344
:1004600040E062E08BE390E00E94CD0003C081E0B9
:100470008093A80080E00F90DF91CF910895CF93F3
:10048000DF93CDB7DEB76FEF8AE390E00E944900BB
:100490006FEF81E390E00E94490062E370E080E04A
:1004A00090E00E94E20388E30E947B0162E070E03A
:1004B00080E090E00E94E2038CE00E947B0162E019
:1004C00070E080E090E00E94E20381E00E947B0106
:1004D00080E0DF91CF910895CF93DF93CDB7DEB762
:1004E00081E00E947B0180E0DF91CF910895CF935E
:1004F000DF9300D01F92CDB7DEB79B838A8319822A
:100500000EC08981882F90E02A813B81820F931F42
:10051000FC0180810E94DD0189818F5F898389814F
:10052000882F90E02A813B81820F931FFC018081FC
:10053000882339F780E00F900F900F90DF91CF91D3
:100540000895CF93DF9300D0CDB7DEB789836A8358
:100550008A818031A0F48981813029F48A81806880
:100560000E947B010FC08981823029F48A81806CCE
:100570000E947B0107C081E08093A80003C081E056
:100580008093A80080E00F900F90DF91CF910895A5
:10059000CF93DF93CDB7DEB780E40E947B0180E08C
:1005A000DF91CF910895CF93DF93CDB7DEB780E889
:1005B0000E947B0180E0DF91CF910895CF93DF937C
:1005C000CDB7DEB7C355D1090FB6F894DEBF0FBE65
:1005D000CDBF19821A821B8289E08C8380E48D83CF
:1005E00080E88E831F8280E8888780EC89878FE887
:1005F0008A8789E78B876FEF8AE390E00E94490042
:100600006FEF81E390E00E94490060E087E390E0B3
:100610000E94490040E060E084E390E00E947100A5
:1006200087E0E0E6F0E0DE011C9601900D928A95ED
:10063000E1F71B8A80E4E8E6F0E0DE0154960190E1
:100640000D928A95E1F70E943F0281E00E947B01B2
:100650001F828D810E947B011A820FC08A81882FA0
:1006600090E09E012C5E3F4F820F931FFC01808122
:100670000E94DD018A818F5F8A838A81803470F3D2
:100680008E810E947B011B8251C01A8244C08A81E4
:10069000282F30E08C81882F90E0019728173907A8
:1006A000A1F49A858A81F92FF81B8F2F0E947B0174
:1006B0008B81882F90E09E01245F3F4F820F931F14
:1006C000FC0180810E94DD0123C09A858A81F92F77
:1006D000F81B8F2F0E947B018B81882F90E09E0159
:1006E000245F3F4F820F931FFC0180810E94DD0138
:1006F00068EC70E080E090E00E94E2039A858A81D5
:10070000F92FF81B8F2F0E947B0180E20E94DD01F0
:100710008A818F5F8A839A818C81981708F4B7CF7A
:100720008C8181508C838B818F5F8B838B81863012
:1007300008F4ABCF89850E947B018CE08C8387E035
:1007400089831B823BC01A822CC08A81282F30E00B
:100750008C81882F90E001972817390749F49985F3
:100760008A81890F0E947B0189810E94DD011DC061
:1007700099858A81890F0E947B0189810E94DD0110
:1007800068EC70E080E090E00E94E20399858A8145
:10079000890F0E947B0180E20E94DD018A818F5FC8
:1007A0008A839A818C81981780F28C8181508C8306
:1007B0008981815089838B818F5F8B838B81883086
:1007C00010F2FFCFCF93DF93CDB7DEB728970FB6E8
:1007D000F894DEBF0FBECDBF6D837E838F83988775
:1007E00025C019821A821B821C820CC000008981DC
:1007F0009A81AB81BC810196A11DB11D89839A8329
:10080000AB83BC8389819A81AB81BC818F36910592
:10081000A105B10558F38D819E81AF81B8850197FF
:10082000A109B1098D839E83AF83B8878D819E8195
:10083000AF81B8850097A105B10599F628960FB646
:10084000F894DEBF0FBECDBFDF91CF910895F8942D
:02085000FFCFD8
:1008520052757373656C0000000101010F00000006
:10086200001E121E03020418000000001F000000F8
:1008720000001E1213121E00000000001F000000E4
:1008820000040A011F000000000000001F00000019
:0808920000001E1212121E00EC
:00000001FF
