:100000000C942A000C943F000C943F000C943F0089
:100010000C943F000C943F000C943F000C943F0064
:100020000C943F000C943F000C943F000C943F0054
:100030000C943F000C943F000C943F000C943F0044
:100040000C943F000C943F000C943F000C943F0034
:100050000C943F0011241FBECFE5D8E0DEBFCDBF1A
:1000600010E0A0E6B0E0E2E7F9E002C005900D92F2
:10007000A83DB107D9F70E9433020C94B7040C9441
:100080000000DF93CF93CDB7DEB7A3970FB6F894F8
:10009000DEBF0FBECDBF6E8B7F8B888F998FE8E35D
:1000A000F0E081E080838CE389836CC0CE0102960E
:1000B0009B8F8A8FEAE6F0E0FD8FEC8FFAE0FE8FEF
:1000C000EC8DFD8D00808C8D9D8D01969D8F8C8F8C
:1000D000EA8DFB8D00828A8D9B8D01969B8F8A8F86
:1000E0009E8D91509E8FEE8DEE2351F7A2E3B0E0EE
:1000F00089819AE0692F0E948404892F282F30E09B
:10010000CE010296FC01E20FF31F80818C93CE0199
:100110000C9698A38F8FE0E6F0E0FAA3E9A3FAE04B
:10012000FBA3E9A1FAA1008089A19AA101969AA353
:1001300089A3EF8DF8A100828F8D98A1019698A3D5
:100140008F8F9BA191509BA3EBA1EE2351F7ABE3C3
:10015000B0E089819AE0692F0E948404282F30E062
:10016000CE010C96FC01E20FF31F80818C938E89E7
:100170009F89A88DB98DBC01CD010E94EE018981B6
:10018000815089838981882309F090CFA3960FB687
:10019000F894DEBF0FBECDBFCF91DF910895DF93FE
:1001A000CF93CDB7DEB7EAE3F0E08FEF8083E7E3EC
:1001B000F0E08FEF8083CF91DF910895DF93CF93AD
:1001C000CDB7DEB7A3970FB6F894DEBF0FBECDBF95
:1001D0006E8B7F8B888F998FE8E3F0E082E08083DD
:1001E00085E0898360C0CE0102969B8F8A8FEEE7FF
:1001F000F0E0FD8FEC8FFAE0FE8FEC8DFD8D00803E
:100200008C8D9D8D01969D8F8C8FEA8DFB8D00824C
:100210008A8D9B8D01969B8F8A8F9E8D91509E8F8C
:10022000EE8DEE2351F7EBE3F0E08A818083CE017F
:100230000C9698A38F8FE4E7F0E0FAA3E9A3FAE025
:10024000FBA3E9A1FAA1008089A19AA101969AA332
:1002500089A3EF8DF8A100828F8D98A1019698A3B4
:100260008F8F9BA191509BA3EBA1EE2351F7A2E3AB
:10027000B0E089819AE0692F0E948404892F282F99
:1002800030E0CE010C96FC01E20FF31F80818C93CD
:100290008E899F89A88DB98DBC01CD010E94EE0188
:1002A0008981815089838981882309F09CCFA39615
:1002B0000FB6F894DEBF0FBECDBFCF91DF9108958A
:1002C000DF93CF93CDB7DEB7A3970FB6F894DEBF19
:1002D0000FBECDBF6E8B7F8B888F998FE8E3F0E0E8
:1002E00084E080838CE389836CC0CE0102969B8F6F
:1002F0008A8FE2E9F0E0FD8FEC8FFAE0FE8FEC8D63
:10030000FD8D00808C8D9D8D01969D8F8C8FEA8D4B
:10031000FB8D00828A8D9B8D01969B8F8A8F9E8D8F
:1003200091509E8FEE8DEE2351F7A2E3B0E08981CC
:100330009AE0692F0E948404892F282F30E0CE0193
:100340000296FC01E20FF31F80818C93CE010C9684
:1003500098A38F8FE8E8F0E0FAA3E9A3FAE0FBA303
:10036000E9A1FAA1008089A19AA101969AA389A383
:10037000EF8DF8A100828F8D98A1019698A38F8FA1
:100380009BA191509BA3EBA1EE2351F7ABE3B0E00F
:1003900089819AE0692F0E948404282F30E0CE01E1
:1003A0000C96FC01E20FF31F80818C938E899F894C
:1003B000A88DB98DBC01CD010E94EE0189818150CB
:1003C00089838981882309F090CFA3960FB6F8948A
:1003D000DEBF0FBECDBFCF91DF910895DF93CF93E6
:1003E000CDB7DEB728970FB6F894DEBF0FBECDBFEE
:1003F0006D837E838F83988725C019821A821B8222
:100400001C820CC0000089819A81AB81BC8101965D
:10041000A11DB11D89839A83AB83BC8389819A8195
:10042000AB81BC818F369105A105B10558F38D8153
:100430009E81AF81B8850197A109B1098D839E8303
:10044000AF83B8878D819E81AF81B8850097A10564
:10045000B10599F628960FB6F894DEBF0FBECDBF52
:10046000CF91DF9108950F931F93DF93CF93CDB773
:10047000DEB7CD55D0400FB6F894DEBF0FBECDBF6E
:10048000E1E3F0E08FEF8083E4E3F0E08FEF80833F
:1004900084E08B838BE38A832FC281E4898325C226
:1004A000E5E3F0E08FED8083CE01049622969FAFC6
:1004B0008EAF2297EEECF0E02496FFAFEEAF2497DC
:1004C000FAE02596FFAF25972496EEADFFAD249771
:1004D000008024968EAD9FAD2497019624969FAF01
:1004E0008EAF24972296EEADFFAD22970082229622
:1004F0008EAD9FAD2297019622969FAF8EAF229729
:1005000025969FAD2597915025969FAF25972596C7
:10051000EFAD2597EE23C1F602E310E08981882F25
:1005200090E04D962AE030E0B9010E9490049C01D1
:10053000CE010496FC01E20FF31F8081F801808355
:1005400061E070E080E090E00E94EE01E5E3F0E021
:100550008FEF808362E070E080E090E00E94EE0127
:10056000E5E3F0E08FEE8083CE010E9627969FAFF5
:100570008EAF2797E4ECF0E02996FFAFEEAF299716
:10058000FAE02A96FFAF2A972996EEADFFAD29979C
:10059000008029968EAD9FAD2997019629969FAF31
:1005A0008EAF29972796EEADFFAD2797008227964D
:1005B0008EAD9FAD2797019627969FAF8EAF279759
:1005C0002A969FAD2A9791502A969FAF2A972A96EE
:1005D000EFAD2A97EE23C1F602E310E08981882F60
:1005E00090E04D962AE030E0B9010E949004CB01E2
:1005F0009C01CE010E96FC01E20FF31F8081F801F1
:10060000808361E070E080E090E00E94EE01E5E32D
:10061000F0E08FEF808362E070E080E090E00E9485
:10062000EE01E5E3F0E087EF8083CE0148962C965B
:100630009FAF8EAF2C97EAEBF0E02E96FFAFEEAFB8
:100640002E97FAE02F96FFAF2F972E96EEADFFADC7
:100650002E9700802E968EAD9FAD2E9701962E96EA
:100660009FAF8EAF2E972C96EEADFFAD2C970082EC
:100670002C968EAD9FAD2C9701962C969FAF8EAF8A
:100680002C972F969FAD2F9791502F969FAF2F9716
:100690002F96EFAD2F97EE23C1F6A2E3B0E08A814B
:1006A0009AE0692F0E948404892F282F30E0CE0120
:1006B0004896FC01E20FF31F80818C9362E070E0AA
:1006C00080E090E00E94EE01E5E3F0E08FEF8083B0
:1006D00062E070E080E090E00E94EE01E5E3F0E08F
:1006E0008BEF8083CE01829661969FAF8EAF61972C
:1006F000E0EBF0E06396FFAFEEAF6397FAE064964D
:10070000FFAF64976396EEADFFAD6397008063968D
:100710008EAD9FAD6397019663969FAF8EAF639743
:100720006196EEADFFAD6197008261968EAD9FAD93
:100730006197019661969FAF8EAF619764969FAD6A
:100740006497915064969FAF64976496EFAD6497F9
:10075000EE23C1F6A2E3B0E08A819AE0692F0E94FD
:100760008404282F30E0CE018296FC01E20FF31FB3
:1007700080818C9362E070E080E090E00E94EE0166
:10078000E5E3F0E08FEF808361E070E080E090E0EF
:100790000E94EE01E5E3F0E08DEF8083CE018C96C0
:1007A00066969FAF8EAF6697E6EAF0E06896FFAF79
:1007B000EEAF6897FAE06996FFAF69976896EEAD7D
:1007C000FFAD6897008068968EAD9FAD68970196E3
:1007D00068969FAF8EAF68976696EEADFFAD669751
:1007E000008266968EAD9FAD6697019666969FAF26
:1007F0008EAF669769969FAD6997915069969FAF46
:1008000069976996EFAD6997EE23C1F6A2E3B0E070
:100810008B81282F30E0CE018C96FC01E20FF31F74
:1008200080818C9362E070E080E090E00E94EE01B5
:10083000E5E3F0E08FEF808361E070E080E090E03E
:100840000E94EE01E5E3F0E08EEF8083CE01C696D4
:100850006B969FAF8EAF6B97ECE9F0E06D96FFAFB4
:10086000EEAF6D97FAE06E96FFAF6E976D96EEADB8
:10087000FFAD6D9700806D968EAD9FAD6D97019623
:100880006D969FAF8EAF6D976B96EEADFFAD6B978C
:1008900000826B968EAD9FAD6B9701966B969FAF66
:1008A0008EAF6B976E969FAD6E9791506E969FAF81
:1008B0006E976E96EFAD6E97EE23C1F6E2E3F0E031
:1008C0008EA9808362E070E080E090E00E94EE01FB
:1008D000E5E3F0E08FEF808361E070E080E090E09E
:1008E0000E94EE018981815089838981882309F0E2
:1008F000D7CD8A8181508A838A81882309F0CDCD22
:100900008B8181508B83C6CD991B79E004C0991FE0
:10091000961708F0961B881F7A95C9F78095089559
:1009200097FB092E07260AD077FD04D00CD006D0FD
:1009300000201AF4709561957F4F0895F6F7909511
:1009400081959F4F0895AA1BBB1B51E107C0AA1FA9
:10095000BB1FA617B70710F0A61BB70B881F991F60
:100960005A95A9F780959095BC01CD010895F8940A
:02097000FFCFB7
:100972003F0C5B5E6C76771C7F7E3F0C5B5E6C7619
:10098200771C7F7E3F0C5B5E6C76771C7F7E3F0C14
:100992005B5E6C76771C7F7E3F0C5B5E6C76771CB1
:1009A2007F7E3F0C5B5E6C76771C7F7E3F0C5B5ECE
:1009B2006C76771C7F7E3F0C5B5E6C76771C7F7E4D
:1009C2003F0C5B5E6C76771C7F7E3F0C5B5E6C76C9
:1009D200771C7F7E3F0C5B5E6C76771C7F7E3F0CC4
:0809E2005B5E6C76771C7F7EE2
:00000001FF
