:100000000C948A000C9494000C9494000C9494002A
:100010000C9494000C9494000C9494000C94940010
:100020000C9494000C9494000C9494000C94940000
:100030000C9494000C9494000C9494000C949400F0
:100040000C9494000C9494000C9494000C949400E0
:100050000C9494000701070107010701070107013C
:1000600007010701440144014401440144014401E2
:1000700044014401810181018101810181018101EA
:1000800081018101BE01BE01BE01BE01BE01BE01F2
:10009000BE01BE01330233023302330233023302A4
:1000A000330233027002700270027002700270023A
:1000B00070027002AD02AD02AD02AD02AD02AD0242
:1000C000AD02AD02EA02EA02EA02EA02EA02EA024A
:1000D000EA02EA025C035C035C035C035C035C030E
:1000E0005C035C0372037203720372037203720394
:1000F000720372038A038A038A038A038A038A03C8
:100100008A038A03A203A203A203A203A203A203F7
:10011000A203A20311241FBECFE5D8E0DEBFCDBFEE
:100120000E94D2040C941C050C940000CF93DF9322
:10013000CDB7DEB78AE390E02EEFFC01208387E3A2
:1001400090E0FC01108284E390E02FE0FC0120832A
:1001500081E390E0FC0110828BE390E021E0FC0160
:10016000208388E390E0FC01108285E390E02EE09C
:10017000FC01208382E390E0FC01108281E0DF91AA
:10018000CF910895CF93DF9300D01F92CDB7DEB704
:100190009A8389836B838B81882331F489819A8147
:1001A000FC01108281E010C08B81813039F489819B
:1001B0009A812FEFFC01208381E006C089819A811A
:1001C0002FEFFC01208380E00F900F900F90DF91C4
:1001D000CF910895CF93DF9300D0CDB7DEB7898359
:1001E0006A838981882F90E0AA2797FDA095BA2F6E
:1001F00040E050E02FE130E0841B950B28173907D1
:1002000008F4F9C0865D9F4FFC010C9402058A81B9
:100210008823D9F48AE390E02AE330E0F9012081D1
:10022000622F2981222F30E0A9014770552721E054
:1002300030E0042E02C0220F331F0A94E2F720950B
:100240002623FC01208381E0D7C08A818130D1F44C
:100250008AE390E02AE330E0F9012081622F2981CE
:10026000222F30E0A9014770552721E030E0042E0D
:1002700002C0220F331F0A94E2F7262BFC012083D1
:1002800081E0BAC080E0B8C08A818823D9F487E3CE
:1002900090E027E330E0F9012081622F2981222FAD
:1002A00030E0A9014770552721E030E0042E02C05C
:1002B000220F331F0A94E2F720952623FC012083A6
:1002C00081E09AC08A818130D1F487E390E027E30E
:1002D00030E0F9012081622F2981222F30E0A9012D
:1002E0004770552721E030E0042E02C0220F331F53
:1002F0000A94E2F7262BFC01208381E07DC080E098
:100300007BC08A818823D9F484E390E024E330E041
:10031000F9012081622F2981222F30E0A901477045
:10032000552721E030E0042E02C0220F331F0A942B
:10033000E2F720952623FC01208381E05DC08A81BD
:100340008130D1F484E390E024E330E0F9012081AE
:10035000622F2981222F30E0A9014770552721E023
:1003600030E0042E02C0220F331F0A94E2F7262B3E
:10037000FC01208381E040C080E03EC08A81882368
:10038000D9F481E390E021E330E0F9012081622F8C
:100390002981222F30E0A9014770552721E030E064
:1003A000042E02C0220F331F0A94E2F72095262361
:1003B000FC01208381E020C08A818130D1F481E377
:1003C00090E021E330E0F9012081622F2981222F82
:1003D00030E0A9014770552721E030E0042E02C02B
:1003E000220F331F0A94E2F7262BFC01208381E0C1
:1003F00003C080E001C080E00F900F90DF91CF91AB
:100400000895CF93DF9300D01F92CDB7DEB79A83C4
:1004100089836B8389819A812B81FC01208381E010
:100420000F900F900F90DF91CF910895CF93DF93AE
:1004300000D0CDB7DEB789836A838981882F90E0A9
:10044000AA2797FDA095BA2F40E050E02FE130E0B9
:10045000841B950B2817390708F4F9C0865B9F4F5A
:10046000FC010C9402058A818823D9F48BE390E087
:100470002BE330E0F9012081622F2981222F30E027
:10048000A9014770552721E030E0042E02C0220F59
:10049000331F0A94E2F720952623FC01208381E094
:1004A000D7C08A818130D1F48BE390E02BE330E038
:1004B000F9012081622F2981222F30E0A9014770A4
:1004C000552721E030E0042E02C0220F331F0A948A
:1004D000E2F7262BFC01208381E0BAC080E0B8C09F
:1004E0008A818823D9F488E390E028E330E0F90199
:1004F0002081622F2981222F30E0A90147705527E2
:1005000021E030E0042E02C0220F331F0A94E2F7EC
:1005100020952623FC01208381E09AC08A818130C6
:10052000D1F488E390E028E330E0F9012081622FE4
:100530002981222F30E0A9014770552721E030E0C2
:10054000042E02C0220F331F0A94E2F7262BFC016F
:10055000208381E07DC080E07BC08A818823D9F43C
:1005600085E390E025E330E0F9012081622F2981C5
:10057000222F30E0A9014770552721E030E0042EFA
:1005800002C0220F331F0A94E2F720952623FC01B4
:10059000208381E05DC08A818130D1F485E390E0E1
:1005A00025E330E0F9012081622F2981222F30E0FC
:1005B000A9014770552721E030E0042E02C0220F28
:1005C000331F0A94E2F7262BFC01208381E040C010
:1005D00080E03EC08A818823D9F482E390E022E360
:1005E00030E0F9012081622F2981222F30E0A9011A
:1005F0004770552721E030E0042E02C0220F331F40
:100600000A94E2F720952623FC01208381E020C094
:100610008A818130D1F482E390E022E330E0F90175
:100620002081622F2981222F30E0A90147705527B0
:1006300021E030E0042E02C0220F331F0A94E2F7BB
:10064000262BFC01208381E003C080E001C080E014
:100650000F900F90DF91CF910895CF93DF9300D04B
:100660001F92CDB7DEB789837B836A8389810F9020
:100670000F900F90DF91CF910895CF93DF9300D02B
:100680001F92CDB7DEB789837B836A838981882FE8
:1006900090E0AA2797FDA095BA2F40E050E02FE107
:1006A00030E0841B950B2817390708F463C086597E
:1006B0009F4FFC010C94020589E390E0FC018081CE
:1006C000882F90E02981222F30E002C095958795F0
:1006D0002A95E2F7282F21708A819B81FC012083D3
:1006E00081E049C086E390E0FC018081882F90E0A2
:1006F0002981222F30E02770332702C095958795F6
:100700002A95E2F7282F21708A819B81FC012083A2
:1007100081E031C083E390E0FC018081882F90E08C
:100720002981222F30E02770332702C095958795C5
:100730002A95E2F7282F21708A819B81FC01208372
:1007400081E019C080E390E0FC018081882F90E077
:100750002981222F30E02770332702C09595879595
:100760002A95E2F7282F21708A819B81FC01208342
:1007700081E001C080E00F900F900F90DF91CF914A
:100780000895CF93DF93CDB7DEB7DF91CF91089572
:10079000CF93DF93CDB7DEB729970FB6F894DEBFBE
:1007A0000FBECDBF84E0898384E0898339C089810D
:1007B000282F30E084E090E0B9010E94EE04682F19
:1007C00080E10E9471048981282F30E085E090E06B
:1007D000B9010E94EE04682F81E10E9471048981B1
:1007E000282F30E086E090E0B9010E94EE04682FE7
:1007F00082E10E9471048981282F30E087E090E037
:10080000B9010E94EE04682F83E10E94710460E93F
:1008100071E080E090E00E948D0489818F5F898380
:100820008981883020F280E029960FB6F894DEBFE7
:100830000FBECDBFDF91CF910895CF93DF93CDB79A
:10084000DEB729970FB6F894DEBF0FBECDBF84E0A8
:10085000898384E0898339C08981282F30E084E04E
:1008600090E0B9010E94EE04682F83E10E947104B8
:100870008981282F30E085E090E0B9010E94EE04E4
:10088000682F82E10E9471048981282F30E086E080
:1008900090E0B9010E94EE04682F81E10E9471048A
:1008A0008981282F30E087E090E0B9010E94EE04B2
:1008B000682F80E10E94710460E971E080E090E0BF
:1008C0000E948D0489818F5F89838981883020F21D
:1008D00029960FB6F894DEBF0FBECDBFDF91CF9142
:1008E0000895CF93DF9300D0CDB7DEB789836A83B5
:1008F0008A81882329F460E089810E94160207C05A
:100900008A81882321F061E089810E94160280E0BB
:100910000F900F90DF91CF910895CF93DF93CDB7D4
:10092000DEB728970FB6F894DEBF0FBECDBF6D833C
:100930007E838F83988725C019821A821B821C822E
:100940000CC0000089819A81AB81BC810196A11DF8
:10095000B11D89839A83AB83BC8389819A81AB81E2
:10096000BC818F369105A105B10558F38D819E811B
:10097000AF81B8850197A109B1098D839E83AF83AB
:10098000B8878D819E81AF81B8850097A105B1059B
:1009900099F628960FB6F894DEBF0FBECDBFDF9153
:1009A000CF910895CF93DF931F92CDB7DEB70E940A
:1009B00096000E94C103CE010196BC0180E00E9416
:1009C0003D038981813019F40E94C80306C08981E2
:1009D000882319F40E941D04EECFEDCF97FB072E5C
:1009E00016F4009407D077FD09D00E94080507FC93
:1009F00005D03EF4909581959F4F0895709561952F
:100A00007F4F0895EE0FFF1F0590F491E02D09949C
:100A1000AA1BBB1B51E107C0AA1FBB1FA617B70724
:100A200010F0A61BB70B881F991F5A95A9F7809540
:0C0A30009095BC01CD010895F894FFCF13
:00000001FF
