:100000000C942A000C9447000C9447000C94470071
:100010000C9447000C9447000C9447000C94470044
:100020000C9447000C9447000C9447000C94470034
:100030000C9447000C9447000C9447000C94470024
:100040000C9447000C9447000C9447000C94470014
:100050000C94470011241FBECFE5D8E0DEBFCDBF12
:1000600010E0A0E6B0E0E0E0FBE002C005900D92F9
:10007000A83BB107D9F710E0A8EBB0E001C01D9292
:10008000A93BB107E1F70E9423030C947E050C9471
:100090000000CF93DF9300D01F92CDB7DEB79A83D5
:1000A00089836B838B81882331F489819A81FC0158
:1000B000108280E010C08B81813039F489819A816F
:1000C0002FEFFC01208380E006C089819A812FEF09
:1000D000FC0120838FEF0F900F900F90DF91CF9155
:1000E0000895CF93DF9300D000D0CDB7DEB79A83C9
:1000F00089836B834C838C818823C1F489819A81A5
:10010000FC018081482F8B81282F30E081E090E036
:1001100002C0880F991F2A95E2F780958423282F23
:1001200089819A81FC01208380E01BC08C81813011
:10013000B9F489819A81FC018081482F8B81282F15
:1001400030E081E090E002C0880F991F2A95E2F725
:10015000842B282F89819A81FC01208380E001C0B3
:100160008FEF0F900F900F900F90DF91CF91089528
:10017000CF93DF9300D01F92CDB7DEB79A838983E8
:100180006B8389819A812B81FC01208380E00F9011
:100190000F900F90DF91CF910895CF93DF9300D010
:1001A00000D0CDB7DEB79A8389836B834C838C8173
:1001B0008823C1F489819A81FC018081482F8B8139
:1001C000282F30E081E090E002C0880F991F2A9527
:1001D000E2F780958423282F89819A81FC0120836E
:1001E00080E031C08C818130B9F489819A81FC0131
:1001F0008081482F8B81282F30E081E090E002C081
:10020000880F991F2A95E2F7842B282F89819A81DC
:10021000FC01208380E017C089819A81FC018081E4
:10022000482F8B81282F30E081E090E002C0880FBA
:10023000991F2A95E2F780958423282F89819A8136
:10024000FC0120838FEF0F900F900F900F90DF91A4
:10025000CF910895CF93DF931F92CDB7DEB78983F7
:1002600089810F90DF91CF910895CF93DF9300D0D4
:10027000CDB7DEB789836A838A81883070F489813B
:10028000882F90E02A81222F30E0022E02C095951F
:1002900087950A94E2F7817001C08FEF0F900F905D
:1002A000DF91CF910895CF93DF93CDB7DEB78AE387
:1002B00090E02FEFFC01208387E390E0FC011082A7
:1002C00084E390E0FC01108281E390E0FC01108265
:1002D0008BE390E0FC01108288E390E0FC01108247
:1002E00085E390E0FC01108282E390E0FC01108243
:1002F000DF91CF910895CF93DF931F92CDB7DEB7F3
:1003000089838AE390E0FC0180818F3F09F04DC032
:1003100081E390E0FC018081882F90E09C012170B6
:10032000332781E390E0FC0180818695882F90E05F
:10033000822393239C012170332781E390E0FC0109
:10034000808186958695882F90E082239323817003
:100350009927009751F140E062E08BE390E00E9422
:10036000CD0040E060E08BE390E00E94CD0040E0F3
:1003700061E08BE390E00E94CD00698182E390E030
:100380000E94B80041E062E08BE390E00E94CD0063
:1003900062E070E080E090E00E94DE0240E062E017
:1003A0008BE390E00E94CD0003C081E08093B80011
:1003B00080E00F90DF91CF910895CF93DF931F924C
:1003C000CDB7DEB789838AE390E0FC0180818F3F5F
:1003D00009F04DC081E390E0FC018081882F90E01E
:1003E0009C012170332781E390E0FC018081869598
:1003F000882F90E0822393239C012170332781E38F
:1004000090E0FC01808186958695882F90E082237C
:10041000932381709927009751F140E062E08BE3CC
:1004200090E00E94CD0041E060E08BE390E00E940C
:10043000CD0040E061E08BE390E00E94CD00698157
:1004400082E390E00E94B80041E062E08BE390E03C
:100450000E94CD0062E070E080E090E00E94DE0249
:1004600040E062E08BE390E00E94CD0003C081E0B9
:100470008093B80080E00F90DF91CF910895CF93E3
:10048000DF93CDB7DEB76FEF8AE390E00E944900BB
:100490006FEF81E390E00E94490062E370E080E04A
:1004A00090E00E94DE0288E30E947B0162E070E03F
:1004B00080E090E00E94DE028CE00E947B0162E01E
:1004C00070E080E090E00E94DE0281E00E947B010B
:1004D00080E0DF91CF910895CF93DF93CDB7DEB762
:1004E00081E00E947B0180E0DF91CF910895CF935E
:1004F000DF9300D01F92CDB7DEB79B838A8319822A
:100500000EC08981882F90E02A813B81820F931F42
:10051000FC0180810E94DD0189818F5F898389814F
:10052000882F90E02A813B81820F931FFC018081FC
:10053000882339F780E00F900F900F90DF91CF91D3
:100540000895CF93DF9300D0CDB7DEB789836A8358
:100550008A818031A0F48981813029F48A81806880
:100560000E947B010FC08981823029F48A81806CCE
:100570000E947B0107C081E08093B80003C081E046
:100580008093B80080E00F900F90DF91CF91089595
:10059000CF93DF93CDB7DEB780E40E947B0180E08C
:1005A000DF91CF910895CF93DF93CDB7DEB780E889
:1005B0000E947B0180E0DF91CF910895CF93DF937C
:1005C000CDB7DEB728970FB6F894DEBF0FBECDBF0C
:1005D0006D837E838F83988725C019821A821B8240
:1005E0001C820CC0000089819A81AB81BC8101967C
:1005F000A11DB11D89839A83AB83BC8389819A81B4
:10060000AB81BC818F369105A105B10558F38D8171
:100610009E81AF81B8850197A109B1098D839E8321
:10062000AF83B8878D819E81AF81B8850097A10582
:10063000B10599F628960FB6F894DEBF0FBECDBF70
:10064000DF91CF910895CF93DF93CDB7DEB7CB562F
:10065000D1090FB6F894DEBF0FBECDBF80E48A8704
:1006600080E88B871C861D8619821A821B821C8259
:100670001D8281E08E831E861F86188A198A1F823A
:10068000188619861A8A6FEF8AE390E00E94490063
:100690006FEF81E390E00E94490060E087E390E023
:1006A0000E94490040E060E084E390E00E94710015
:1006B00088E1E0E6F0E0DE01539601900D928A9524
:1006C000E1F780E4E8E7F0E0DE019B9601900D920F
:1006D0008A95E1F70E943F0281E00E947B0186E358
:1006E00090E0FC01808160E00E9435018130A1F53D
:1006F0006EE170E080E090E00E94DE0223C081E0C5
:100700000E947B0199818DEC989F812D1124869503
:1007100086958695880F282F220F220F820FF92F9A
:10072000F81B8F2F88878885805D0E94DD0168EC2B
:1007300070E080E090E00E94DE0289818F5F898313
:1007400081E08B8386E390E0FC01808160E00E9481
:1007500035018130A1F207C086E390E0FC01808181
:1007600060E00E94350186E390E0FC01808161E059
:100770000E943501813009F09EC08B81813009F0E3
:100780009AC06EE170E080E090E00E94DE0288C0D6
:1007900081E00E947B018885805D0E94DD018BE203
:1007A0000E94DD018BE28F8368EC70E080E090E0D6
:1007B0000E94DE0281E08C8381E08E871F86188A8A
:1007C000198A86E390E0FC01808161E00E94350196
:1007D0008130E1F48B818130C9F481E00E947B019A
:1007E0008885805D0E94DD018DE20E94DD018DE241
:1007F0008F8368EC70E080E090E00E94DE0281E090
:100800008C831E8681E08F87188A198A86E390E0A0
:10081000FC01808161E00E9435018130E1F48B812F
:100820008130C9F481E00E947B018885805D0E944F
:10083000DD018AE20E94DD018AE28F8368EC70E0CC
:1008400080E090E00E94DE0281E08C831E861F869D
:10085000188A81E0898B86E390E0FC01808161E069
:100860000E9435018130E1F48B818130C9F481E04F
:100870000E947B018885805D0E94DD018FE20E94DD
:10088000DD018FE28F8368EC70E080E090E00E94F1
:10089000DE0281E08C831E861F8681E0888B198AA8
:1008A00086E390E0FC01808161E00E9435018130A7
:1008B00009F46ECF07C086E390E0FC01808161E01F
:1008C0000E94350186E390E0FC01808162E00E9495
:1008D0003501813009F042C08B81813009F03EC082
:1008E0008C818130D9F56EE170E080E090E00E946B
:1008F000DE022AC081E00E947B019A818DEC989FE4
:10090000812D1124869586958695880F282F220F94
:10091000220F820FF92FF81B8F2F89878885805D22
:100920000E94DD018F810E94DD018985805D0E942A
:10093000DD0168EC70E080E090E00E94DE028A81D8
:100940008F5F8A8381E08D8386E390E0FC01808164
:1009500062E00E943501813069F207C086E390E0D1
:10096000FC01808162E00E94350186E390E0FC0199
:10097000808163E00E943501813009F0B2C08B8133
:10098000813009F0AEC08C81813009F0AAC08D8120
:10099000813009F0A6C08E81813009F0A2C06EE1DD
:1009A00070E080E090E00E94DE028F81882F90E06E
:1009B0008B32910581F08C3291052CF48A329105AD
:1009C00009F43FC08CC08D329105F9F08F3291054A
:1009D00009F453C084C098858985890F8A8B81E08A
:1009E0000E947B018885805D0E94DD018F810E94CD
:1009F000DD018985805D0E94DD018DE30E94DD01BE
:100A00008A89805D0E94DD016AC098858985F92FF9
:100A1000F81B8F2F8A8B81E00E947B018885805D87
:100A20000E94DD018F810E94DD018985805D0E9429
:100A3000DD018DE30E94DD018A89805D0E94DD0178
:100A40004EC098858985989F802D11248A8B81E0DE
:100A50000E947B018885805D0E94DD018F810E945C
:100A6000DD018985805D0E94DD018DE30E94DD014D
:100A70008A89805D0E94DD0132C08985882399F4CE
:100A800081E00E947B0185E40E94DD0182E50E94F5
:100A9000DD0182E50E94DD018FE40E94DD0182E537
:100AA0000E94DD011CC088859985692F0E9472050E
:100AB0008A8B81E00E947B018885805D0E94DD0138
:100AC0008F810E94DD018985805D0E94DD018DE3BB
:100AD0000E94DD018A89805D0E94DD0100001E8286
:100AE000FECDFDCD991B79E004C0991F961708F043
:100AF000961B881F7A95C9F780950895F894FFCFC3
:100B0000003366CC6633000000CC663366CC000050
:100B1000002466C366240000000101010F000000EC
:100B2000001E121E03020418000000001F00000037
:100B300000001E1213121E00000000001F00000023
:100B400000040A011F000000000000001F00000058
:080B500000001E1212121E002B
:00000001FF
