:100000000C948A000C9494000C9494000C9494002A
:100010000C9494000C9494000C9494000C94940010
:100020000C9494000C9494000C9494000C94940000
:100030000C9494000C9494000C9494000C949400F0
:100040000C9494000C9494000C9494000C949400E0
:100050000C94940006010601060106010601060142
:1000600006010601430143014301430143014301EA
:1000700043014301800180018001800180018001F2
:1000800080018001BD01BD01BD01BD01BD01BD01FA
:10009000BD01BD01320232023202320232023202AC
:1000A000320232026F026F026F026F026F026F0242
:1000B0006F026F02AC02AC02AC02AC02AC02AC024A
:1000C000AC02AC02E902E902E902E902E902E90252
:1000D000E902E9025B035B035B035B035B035B0316
:1000E0005B035B037103710371037103710371039C
:1000F00071037103890389038903890389038903D0
:1001000089038903A103A103A103A103A103A103FF
:10011000A103A10311241FBECFE5D8E0DEBFCDBFF0
:100120000E94C0030C943B040C940000CF93DF9317
:10013000CDB7DEB78AE390E02FEFFC01208387E3A1
:1001400090E021E0FC01208384E390E02FEFFC01AC
:10015000208381E390E02FEFFC0120838BE390E08C
:10016000FC01108288E390E0FC01108285E390E0BE
:10017000FC01108282E390E0FC011082DF91CF91BC
:100180000895CF93DF9300D01F92CDB7DEB79A8347
:1001900089836B838B81882331F489819A81FC0167
:1001A000108281E010C08B81813039F489819A817D
:1001B0002FEFFC01208381E006C089819A812FEF17
:1001C000FC01208380E00F900F900F90DF91CF9182
:1001D0000895CF93DF9300D0CDB7DEB789836A83CC
:1001E0008981882F90E0AA2797FDA095BA2F40E03B
:1001F00050E02FE130E0841B950B2817390708F4F5
:10020000F9C0865D9F4FFC010C9435048A818823D8
:10021000D9F48AE390E02AE330E0F9012081622FEB
:100220002981222F30E0A9014770552721E030E0D5
:10023000042E02C0220F331F0A94E2F720952623D2
:10024000FC01208381E0D7C08A818130D1F48AE328
:1002500090E02AE330E0F9012081622F2981222FEA
:1002600030E0A9014770552721E030E0042E02C09C
:10027000220F331F0A94E2F7262BFC01208381E032
:10028000BAC080E0B8C08A818823D9F487E390E0BF
:1002900027E330E0F9012081622F2981222F30E00D
:1002A000A9014770552721E030E0042E02C0220F3B
:1002B000331F0A94E2F720952623FC01208381E076
:1002C0009AC08A818130D1F487E390E027E330E05F
:1002D000F9012081622F2981222F30E0A901477086
:1002E000552721E030E0042E02C0220F331F0A946C
:1002F000E2F7262BFC01208381E07DC080E07BC0FB
:100300008A818823D9F484E390E024E330E0F90182
:100310002081622F2981222F30E0A90147705527C3
:1003200021E030E0042E02C0220F331F0A94E2F7CE
:1003300020952623FC01208381E05DC08A818130E5
:10034000D1F484E390E024E330E0F9012081622FCE
:100350002981222F30E0A9014770552721E030E0A4
:10036000042E02C0220F331F0A94E2F7262BFC0151
:10037000208381E040C080E03EC08A818823D9F498
:1003800081E390E021E330E0F9012081622F2981AF
:10039000222F30E0A9014770552721E030E0042EDC
:1003A00002C0220F331F0A94E2F720952623FC0196
:1003B000208381E020C08A818130D1F481E390E004
:1003C00021E330E0F9012081622F2981222F30E0E2
:1003D000A9014770552721E030E0042E02C0220F0A
:1003E000331F0A94E2F7262BFC01208381E003C02F
:1003F00080E001C080E00F900F90DF91CF910895D1
:10040000CF93DF9300D01F92CDB7DEB79A83898355
:100410006B8389819A812B81FC01208381E00F907D
:100420000F900F90DF91CF910895CF93DF9300D07D
:10043000CDB7DEB789836A838981882F90E0AA27A8
:1004400097FDA095BA2F40E050E02FE130E0841BEB
:10045000950B2817390708F4F9C0865B9F4FFC01FC
:100460000C9435048A818823D9F48BE390E02BE344
:1004700030E0F9012081622F2981222F30E0A9018B
:100480004770552721E030E0042E02C0220F331FB1
:100490000A94E2F720952623FC01208381E0D7C04F
:1004A0008A818130D1F48BE390E02BE330E0F901D5
:1004B0002081622F2981222F30E0A9014770552722
:1004C00021E030E0042E02C0220F331F0A94E2F72D
:1004D000262BFC01208381E0BAC080E0B8C08A816D
:1004E0008823D9F488E390E028E330E0F901208103
:1004F000622F2981222F30E0A9014770552721E082
:1005000030E0042E02C0220F331F0A94E2F7209538
:100510002623FC01208381E09AC08A818130D1F4B6
:1005200088E390E028E330E0F9012081622F2981FF
:10053000222F30E0A9014770552721E030E0042E3A
:1005400002C0220F331F0A94E2F7262BFC012083FE
:1005500081E07DC080E07BC08A818823D9F485E377
:1005600090E025E330E0F9012081622F2981222FDC
:1005700030E0A9014770552721E030E0042E02C089
:10058000220F331F0A94E2F720952623FC012083D3
:1005900081E05DC08A818130D1F485E390E025E37C
:1005A00030E0F9012081622F2981222F30E0A9015A
:1005B0004770552721E030E0042E02C0220F331F80
:1005C0000A94E2F7262BFC01208381E040C080E002
:1005D0003EC08A818823D9F482E390E022E330E0B0
:1005E000F9012081622F2981222F30E0A901477073
:1005F000552721E030E0042E02C0220F331F0A9459
:10060000E2F720952623FC01208381E020C08A8127
:100610008130D1F482E390E022E330E0F9012081DF
:10062000622F2981222F30E0A9014770552721E050
:1006300030E0042E02C0220F331F0A94E2F7262B6B
:10064000FC01208381E003C080E001C080E00F90C6
:100650000F90DF91CF910895CF93DF9300D01F9239
:10066000CDB7DEB789837B836A8389810F900F9032
:100670000F90DF91CF910895CF93DF9300D01F9219
:10068000CDB7DEB789837B836A838981882F90E029
:10069000AA2797FDA095BA2F40E050E02FE130E067
:1006A000841B950B2817390708F463C086599F4FA0
:1006B000FC010C94350489E390E0FC018081882FD3
:1006C00090E02981222F30E002C0959587952A95E8
:1006D000E2F7282F21708A819B81FC01208381E031
:1006E00049C086E390E0FC018081882F90E0298159
:1006F000222F30E02770332702C0959587952A95E1
:10070000E2F7282F21708A819B81FC01208381E000
:1007100031C083E390E0FC018081882F90E0298143
:10072000222F30E02770332702C0959587952A95B0
:10073000E2F7282F21708A819B81FC01208381E0D0
:1007400019C080E390E0FC018081882F90E029812E
:10075000222F30E02770332702C0959587952A9580
:10076000E2F7282F21708A819B81FC01208381E0A0
:1007700001C080E00F900F900F90DF91CF9108950E
:10078000CF93DF93CDB7DEB70E9496000E94C903D6
:10079000FFCFCF93DF93CDB7DEB782E590E02EEBAE
:1007A000FC01208383E590E023E530E0F90120811E
:1007B0002D66FC01208389E590E029E530E0F90110
:1007C00020812360FC0120838FE590E02FE530E05D
:1007D000F90120812068FC012083DF91CF910895E9
:1007E000CF93DF93CDB7DEB728970FB6F894DEBF6F
:1007F0000FBECDBF6D837E838F83988725C01982FE
:100800001A821B821C820CC0000089819A81AB81F4
:10081000BC810196A11DB11D89839A83AB83BC83E2
:1008200089819A81AB81BC818F369105A105B10583
:1008300058F38D819E81AF81B8850197A109B109D7
:100840008D839E83AF83B8878D819E81AF81B8856C
:100850000097A105B10599F628960FB6F894DEBF6A
:100860000FBECDBFDF91CF910895EE0FFF1F059012
:0A087000F491E02D0994F894FFCFF5
:00000001FF
