:100000000C942A000C943F000C943F000C943F0089
:100010000C943F000C943F000C943F000C943F0064
:100020000C943F000C943F000C943F000C943F0054
:100030000C943F000C943F000C943F000C943F0044
:100040000C943F000C943F000C943F000C943F0034
:100050000C943F0011241FBECFE5D8E0DEBFCDBF1A
:1000600010E0A0E6B0E0E6E4F6E002C005900D92F4
:10007000A83BB107D9F70E943C020C9421030C94D1
:100080000000DF93CF9300D000D0CDB7DEB79A83C6
:1000900089836B838B81882329F4E981FA8110821B
:1000A0001C820FC08B81813031F4E981FA818FEF9E
:1000B00080831C8206C0E981FA818FEF80838FEFF5
:1000C0008C838C810F900F900F900F90CF91DF91C8
:1000D0000895DF93CF9300D000D00F92CDB7DEB755
:1000E0009A8389836B834C838C818823B1F4E98163
:1000F000FA818081482F8B81282F30E081E090E0C9
:10010000022E02C0880F991F0A94E2F7809584237B
:10011000E981FA8180831D821AC08C818130A9F423
:10012000E981FA818081482F8B81282F30E081E09E
:1001300090E0022E02C0880F991F0A94E2F7842BE8
:10014000E981FA8180831D8202C08FEF8D838D81CA
:100150000F900F900F900F900F90CF91DF91089517
:10016000DF93CF9300D00F92CDB7DEB79A83898308
:100170006B83E981FA818B81808380E00F900F90FF
:100180000F90CF91DF910895DF93CF9300D000D0EF
:100190000F92CDB7DEB79A8389836B834C838C81B2
:1001A0008823B1F4E981FA818081482F8B81282F3F
:1001B00030E081E090E0022E02C0880F991F0A947F
:1001C000E2F780958423E981FA8180831D822EC025
:1001D0008C818130A9F4E981FA818081482F8B815B
:1001E000282F30E081E090E0022E02C0880F991F96
:1001F0000A94E2F7842BE981FA8180831D8216C07C
:10020000E981FA818081482F8B81282F30E081E0BD
:1002100090E0022E02C0880F991F0A94E2F78095A1
:100220008423E981FA8180838FEF8D838D810F9004
:100230000F900F900F900F90CF91DF910895DF9363
:10024000CF930F92CDB7DEB7898389810F90CF917D
:10025000DF910895DF93CF9300D00F92CDB7DEB733
:1002600089836A838A81883088F48981282F30E0E5
:100270008A81882F90E0A90102C0559547958A95FB
:10028000E2F7CA01582F51705B8302C08FEF8B8356
:100290008B810F900F900F90CF91DF910895DF9396
:1002A000CF93CDB7DEB7EAE3F0E08FEF8083E7E3EB
:1002B000F0E01082E4E3F0E01082E1E3F0E010828D
:1002C000EBE3F0E01082E8E3F0E01082E5E3F0E039
:1002D0001082E2E3F0E01082CF91DF910895DF9386
:1002E000CF930F92CDB7DEB789838BE390E062E0C6
:1002F00040E00E94C4008BE390E060E040E00E9498
:10030000C4008BE390E061E040E00E94C40082E31F
:1003100090E069810E94B0008BE390E062E041E0F0
:100320000E94C40062E070E080E090E00E94F7016B
:100330008BE390E062E040E00E94C4000F90CF9118
:10034000DF910895DF93CF930F92CDB7DEB7898306
:100350008BE390E062E040E00E94C4008BE390E019
:1003600060E041E00E94C4008BE390E061E040E087
:100370000E94C40082E390E069810E94B0008BE398
:1003800090E062E041E00E94C40062E070E080E042
:1003900090E00E94F7018BE390E062E040E00E9471
:1003A000C4000F90CF91DF910895DF93CF93CDB725
:1003B000DEB762E370E080E090E00E94F70188E33E
:1003C0000E946F0162E070E080E090E00E94F7011F
:1003D0008CE00E946F0162E070E080E090E00E949B
:1003E000F70181E00E946F01CF91DF910895DF93C3
:1003F000CF93CDB7DEB728970FB6F894DEBF0FBE08
:10040000CDBF6D837E838F83988725C019821A8222
:100410001B821C820CC0000089819A81AB81BC8147
:100420000196A11DB11D89839A83AB83BC83898109
:100430009A81AB81BC818F369105A105B10558F336
:100440008D819E81AF81B8850197A109B1098D8306
:100450009E83AF83B8878D819E81AF81B8850097D9
:10046000A105B10599F628960FB6F894DEBF0FBE28
:10047000CDBFCF91DF910895DF93CF93CDB7DEB796
:10048000C757D0400FB6F894DEBF0FBECDBF80E493
:100490008B8B80E88A8B198A188A1E861D861C869B
:1004A0001B861A8681E0898718861F821E821D821C
:1004B0001C821B821A8219828AE390E06FEF0E94ED
:1004C000410081E390E06FEF0E94410087E390E0FC
:1004D00060E00E94410084E390E060E040E00E9420
:1004E0006900CE014696E0969FAF8EAFE097E0EAB6
:1004F000F0E0E296FFAFEEAFE297F8E1E396FFAFF0
:10050000E397E296EEADFFADE2970080E2968EAD06
:100510009FADE2970196E2969FAF8EAFE297E0968D
:10052000EEADFFADE0970082E0968EAD9FADE09717
:100530000196E0969FAF8EAFE097E3969FADE3976D
:100540009150E3969FAFE397E396EFADE397EE23E9
:10055000C1F6CE018E96E5969FAF8EAFE597E0E6A9
:10056000F0E0E796FFAFEEAFE797F0E4E896FFAF75
:10057000E897E796EEADFFADE7970080E7968EAD82
:100580009FADE7970196E7969FAF8EAFE797E59609
:10059000EEADFFADE5970082E5968EAD9FADE59798
:1005A0000196E5969FAF8EAFE597E8969FADE897E9
:1005B0009150E8969FAFE897E896EFADE897EE2365
:1005C000C1F60E94D5011D8A2AC01C8A22C09B89BF
:1005D0008989890F0E946F018D89282F30E08C89CD
:1005E000482F50E0220F331F220F331F220F331FDB
:1005F000CE010196820F931F840F951FFC01BD96BB
:1006000080810E94A20189898F5F898B8C898F5F8D
:100610008C8B8C898830D8F28D898F5F8D8B8D89FA
:10062000883098F28A890E946F011D8A06C08D89E0
:100630000E94A2018D898F5F8D8B8D898830B8F3E0
:06064000FFCFF894FFCF8C
:10064600000101010F000000001E121E0302041823
:10065600000000001F00000000001E1213121E0002
:10066600000000001F00000000040A011F00000037
:10067600000000001F00000000001E1212121E00E3
:10068600003366CC6633000000CC663366CC0000CF
:08069600002466C36624000085
:00000001FF
