:100000000C948A000C94A7000C94A7000C94A700F1
:100010000C94A7000C94A7000C94A7000C94A700C4
:100020000C94A7000C94A7000C94A7000C94A700B4
:100030000C94A7000C94A7000C94A7000C94A700A4
:100040000C94A7000C94A7000C94A7000C94A70094
:100050000C94A700160116011601160116011601CF
:10006000160116015301530153015301530153016A
:100070005301530190019001900190019001900172
:1000800090019001CD01CD01CD01CD01CD01CD017A
:10009000CD01CD014202420242024202420242022C
:1000A000420242027F027F027F027F027F027F02C2
:1000B0007F027F02BC02BC02BC02BC02BC02BC02CA
:1000C000BC02BC02F902F902F902F902F902F902D2
:1000D000F902F9026B036B036B036B036B036B0396
:1000E0006B036B038103810381038103810381031C
:1000F0008103810399039903990399039903990350
:1001000099039903B103B103B103B103B103B1037F
:10011000B103B10311241FBECFE5D8E0DEBFCDBFD0
:1001200010E0A0E6B0E0E8EAFCE002C005900D9225
:10013000A836B107D9F710E0A8E6B0E001C01D92DB
:10014000AA36B107E1F70E941E060C9452060C94E1
:100150000000CF93DF93CDB7DEB78AE390E02FEFB7
:10016000FC01208387E390E0FC01108284E390E0AF
:10017000FC01108281E390E0FC0110828BE390E0AF
:10018000FC01108288E390E0FC01108285E390E09E
:10019000FC01108282E390E0FC011082DF91CF919C
:1001A0000895CF93DF9300D01F92CDB7DEB79A8327
:1001B00089836B838B81882331F489819A81FC0147
:1001C000108281E010C08B81813039F489819A815D
:1001D0002FEFFC01208381E006C089819A812FEFF7
:1001E000FC01208380E00F900F900F90DF91CF9162
:1001F0000895CF93DF9300D0CDB7DEB789836A83AC
:100200008981882F90E0AA2797FDA095BA2F40E01A
:1002100050E02FE130E0841B950B2817390708F4D4
:10022000F9C0865D9F4FFC010C944C068A8188239F
:10023000D9F48AE390E02AE330E0F9012081622FCB
:100240002981222F30E0A9014770552721E030E0B5
:10025000042E02C0220F331F0A94E2F720952623B2
:10026000FC01208381E0D7C08A818130D1F48AE308
:1002700090E02AE330E0F9012081622F2981222FCA
:1002800030E0A9014770552721E030E0042E02C07C
:10029000220F331F0A94E2F7262BFC01208381E012
:1002A000BAC080E0B8C08A818823D9F487E390E09F
:1002B00027E330E0F9012081622F2981222F30E0ED
:1002C000A9014770552721E030E0042E02C0220F1B
:1002D000331F0A94E2F720952623FC01208381E056
:1002E0009AC08A818130D1F487E390E027E330E03F
:1002F000F9012081622F2981222F30E0A901477066
:10030000552721E030E0042E02C0220F331F0A944B
:10031000E2F7262BFC01208381E07DC080E07BC0DA
:100320008A818823D9F484E390E024E330E0F90162
:100330002081622F2981222F30E0A90147705527A3
:1003400021E030E0042E02C0220F331F0A94E2F7AE
:1003500020952623FC01208381E05DC08A818130C5
:10036000D1F484E390E024E330E0F9012081622FAE
:100370002981222F30E0A9014770552721E030E084
:10038000042E02C0220F331F0A94E2F7262BFC0131
:10039000208381E040C080E03EC08A818823D9F478
:1003A00081E390E021E330E0F9012081622F29818F
:1003B000222F30E0A9014770552721E030E0042EBC
:1003C00002C0220F331F0A94E2F720952623FC0176
:1003D000208381E020C08A818130D1F481E390E0E4
:1003E00021E330E0F9012081622F2981222F30E0C2
:1003F000A9014770552721E030E0042E02C0220FEA
:10040000331F0A94E2F7262BFC01208381E003C00E
:1004100080E001C080E00F900F90DF91CF910895B0
:10042000CF93DF9300D01F92CDB7DEB79A83898335
:100430006B8389819A812B81FC01208381E00F905D
:100440000F900F90DF91CF910895CF93DF9300D05D
:10045000CDB7DEB789836A838981882F90E0AA2788
:1004600097FDA095BA2F40E050E02FE130E0841BCB
:10047000950B2817390708F4F9C0865B9F4FFC01DC
:100480000C944C068A818823D9F48BE390E02BE30B
:1004900030E0F9012081622F2981222F30E0A9016B
:1004A0004770552721E030E0042E02C0220F331F91
:1004B0000A94E2F720952623FC01208381E0D7C02F
:1004C0008A818130D1F48BE390E02BE330E0F901B5
:1004D0002081622F2981222F30E0A9014770552702
:1004E00021E030E0042E02C0220F331F0A94E2F70D
:1004F000262BFC01208381E0BAC080E0B8C08A814D
:100500008823D9F488E390E028E330E0F9012081E2
:10051000622F2981222F30E0A9014770552721E061
:1005200030E0042E02C0220F331F0A94E2F7209518
:100530002623FC01208381E09AC08A818130D1F496
:1005400088E390E028E330E0F9012081622F2981DF
:10055000222F30E0A9014770552721E030E0042E1A
:1005600002C0220F331F0A94E2F7262BFC012083DE
:1005700081E07DC080E07BC08A818823D9F485E357
:1005800090E025E330E0F9012081622F2981222FBC
:1005900030E0A9014770552721E030E0042E02C069
:1005A000220F331F0A94E2F720952623FC012083B3
:1005B00081E05DC08A818130D1F485E390E025E35C
:1005C00030E0F9012081622F2981222F30E0A9013A
:1005D0004770552721E030E0042E02C0220F331F60
:1005E0000A94E2F7262BFC01208381E040C080E0E2
:1005F0003EC08A818823D9F482E390E022E330E090
:10060000F9012081622F2981222F30E0A901477052
:10061000552721E030E0042E02C0220F331F0A9438
:10062000E2F720952623FC01208381E020C08A8107
:100630008130D1F482E390E022E330E0F9012081BF
:10064000622F2981222F30E0A9014770552721E030
:1006500030E0042E02C0220F331F0A94E2F7262B4B
:10066000FC01208381E003C080E001C080E00F90A6
:100670000F90DF91CF910895CF93DF9300D01F9219
:10068000CDB7DEB789837B836A8389810F900F9012
:100690000F90DF91CF910895CF93DF9300D01F92F9
:1006A000CDB7DEB789837B836A838981882F90E009
:1006B000AA2797FDA095BA2F40E050E02FE130E047
:1006C000841B950B2817390708F463C086599F4F80
:1006D000FC010C944C0689E390E0FC018081882F9A
:1006E00090E02981222F30E002C0959587952A95C8
:1006F000E2F7282F21708A819B81FC01208381E011
:1007000049C086E390E0FC018081882F90E0298138
:10071000222F30E02770332702C0959587952A95C0
:10072000E2F7282F21708A819B81FC01208381E0E0
:1007300031C083E390E0FC018081882F90E0298123
:10074000222F30E02770332702C0959587952A9590
:10075000E2F7282F21708A819B81FC01208381E0B0
:1007600019C080E390E0FC018081882F90E029810E
:10077000222F30E02770332702C0959587952A9560
:10078000E2F7282F21708A819B81FC01208381E080
:1007900001C080E00F900F900F90DF91CF910895EE
:1007A000CF93DF93CDB7DEB761E080E10E94F9001F
:1007B00061E081E10E94F90061E082E10E94F900BC
:1007C00061E083E10E94F90060E084E10E94F900A9
:1007D00060E085E10E94F90060E086E10E94F90096
:1007E00060E087E10E94F90061E080E10E9425025B
:1007F00061E081E10E94250261E082E10E94250220
:1008000061E083E10E94250261E084E10E9425020B
:1008100061E085E10E94250261E086E10E942502F7
:1008200061E087E10E94250281E0DF91CF91089588
:10083000CF93DF93CDB7DEB763970FB6F894DEBFE3
:100840000FBECDBF898B7B8B6A8B88E0E0E6F0E042
:10085000DE01149601900D928A95E1F78EE08C8767
:100860008DE08D878BE08E8787E08F871B821982D2
:100870001A8281E0888B19821A8250C08981882F60
:1008800090E09E01245F3F4F820F931FFC01808107
:10089000882F90E02A81222F30E0022E02C0959509
:1008A00087950A94E2F781709927009771F48981FE
:1008B000882F90E09E012C5F3F4F820F931FFC0119
:1008C000808160E00E94250226C08981882F90E007
:1008D0009E01245F3F4F820F931FFC018081882F70
:1008E00090E02A81222F30E0022E02C09595879554
:1008F0000A94E2F781709927009769F08981882F1F
:1009000090E09E012C5F3F4F820F931FFC0180817E
:1009100061E00E9425028A818F5F8A838A81843008
:1009200008F4ACCF84E0898306C0CE014096BC01B8
:1009300084E10E944C0389818930B8F789818F5FF7
:1009400089839ACFCF93DF931F92CDB7DEB7898388
:1009500060E082E00E94250260E080E00E942502C3
:1009600060E081E00E942502698182E390E00E94BC
:10097000100261E082E00E94250262E070E080E007
:1009800090E00E94D90560E082E00E9425020F906D
:10099000DF91CF910895CF93DF931F92CDB7DEB74C
:1009A000898360E082E00E94250261E080E00E948D
:1009B000250260E081E00E942502698182E390E0E7
:1009C0000E94100261E082E00E94250262E070E075
:1009D00080E090E00E94D90560E082E00E9425025C
:1009E0000F90DF91CF910895CF93DF93CDB7DEB70E
:1009F00062E370E080E090E00E94D90588E30E9405
:100A0000A20462E070E080E090E00E94D9058CE0F2
:100A10000E94A20462E070E080E090E00E94D905AC
:100A200081E00E94A204DF91CF910895CF93DF93DC
:100A300000D000D0CDB7DEB78A837C836B83CE0134
:100A40000196BC018A810E944C0389818130C9F4DE
:100A5000809168008F5F8093680010926900809198
:100A600068008A3040F08B819C8121E0FC0120836A
:100A70001092680020C08B819C8123E0FC012083C0
:100A80001AC089818823B9F4809169008F5F8093AF
:100A9000690010926800809169008B3038F48B8176
:100AA0009C81FC0110821092690005C08B819C81A1
:100AB00022E0FC01208380E00F900F900F900F90B8
:100AC000DF91CF910895CF93DF93CDB7DEB76197D4
:100AD0000FB6F894DEBF0FBECDBF81E08A831B82C4
:100AE0001C821D821E8281E08F83188619861A86D9
:100AF0001B8681E08C871D861E861F86188A81E0F2
:100B0000898B19820E94A90061E080E10E94F900AE
:100B100061E081E10E94F90061E082E10E94F90058
:100B200061E083E10E94F90019823BC08981882F2E
:100B300090E09E012E5F3F4F820F931FFC0180814A
:100B4000682F80E10E9425028981882F90E09E0114
:100B50002A5F3F4F820F931FFC018081682F81E144
:100B60000E9425028981882F90E09E01265F3F4FD9
:100B7000820F931FFC018081682F82E10E94250271
:100B80008981882F90E09E01225F3F4F820F931F43
:100B9000FC018081682F83E10E94250289818F5F9B
:100BA00089838981843010F261E080E10E9425020E
:100BB000BBCFCF93DF93CDB7DEB728970FB6F894AE
:100BC000DEBF0FBECDBF6D837E838F83988725C028
:100BD00019821A821B821C820CC0000089819A81B2
:100BE000AB81BC810196A11DB11D89839A83AB8322
:100BF000BC8389819A81AB81BC818F369105A10527
:100C0000B10558F38D819E81AF81B8850197A10907
:100C1000B1098D839E83AF83B8878D819E81AF811B
:100C2000B8850097A105B10599F628960FB6F894F6
:100C3000DEBF0FBECDBFDF91CF910895CF93DF937D
:100C40001F92CDB7DEB70E94A90061E080E10E944B
:100C5000F90060E081E10E94F90061E083E10E9417
:100C6000F90061E082E10E94F900CE010196BC0129
:100C700081E10E9416058981813029F461E080E1DB
:100C80000E94250208C08981882329F460E080E160
:100C90000E942502EACFE9CFEE0FFF1F0590F491E5
:080CA000E02D0994F894FFCF48
:080CA8001011121314151617A8
:00000001FF
