:100000000C942A000C943F000C943F000C943F0089
:100010000C943F000C943F000C943F000C943F0064
:100020000C943F000C943F000C943F000C943F0054
:100030000C943F000C943F000C943F000C943F0044
:100040000C943F000C943F000C943F000C943F0034
:100050000C943F0011241FBECFE5D8E0DEBFCDBF1A
:1000600010E0A0E6B0E0E2EDF7E002C005900D92EE
:10007000AC3DB107D9F70E9433020C94E7030C940E
:100080000000DF93CF93CDB7DEB7A3970FB6F894F8
:10009000DEBF0FBECDBF6E8B7F8B888F998FE8E35D
:1000A000F0E081E080838CE389836CC0CE0102960E
:1000B0009B8F8A8FEAE6F0E0FD8FEC8FFAE0FE8FEF
:1000C000EC8DFD8D00808C8D9D8D01969D8F8C8F8C
:1000D000EA8DFB8D00828A8D9B8D01969B8F8A8F86
:1000E0009E8D91509E8FEE8DEE2351F7A2E3B0E0EE
:1000F00089819AE0692F0E94DB03892F282F30E045
:10010000CE010296FC01E20FF31F80818C93CE0199
:100110000C9698A38F8FE0E6F0E0FAA3E9A3FAE04B
:10012000FBA3E9A1FAA1008089A19AA101969AA353
:1001300089A3EF8DF8A100828F8D98A1019698A3D5
:100140008F8F9BA191509BA3EBA1EE2351F7ABE3C3
:10015000B0E089819AE0692F0E94DB03282F30E00C
:10016000CE010C96FC01E20FF31F80818C938E89E7
:100170009F89A88DB98DBC01CD010E94EE018981B6
:10018000815089838981882309F090CFA3960FB687
:10019000F894DEBF0FBECDBFCF91DF910895DF93FE
:1001A000CF93CDB7DEB7EAE3F0E08FEF8083E7E3EC
:1001B000F0E08FEF8083CF91DF910895DF93CF93AD
:1001C000CDB7DEB7A3970FB6F894DEBF0FBECDBF95
:1001D0006E8B7F8B888F998FE8E3F0E082E08083DD
:1001E00085E0898360C0CE0102969B8F8A8FEEE7FF
:1001F000F0E0FD8FEC8FFAE0FE8FEC8DFD8D00803E
:100200008C8D9D8D01969D8F8C8FEA8DFB8D00824C
:100210008A8D9B8D01969B8F8A8F9E8D91509E8F8C
:10022000EE8DEE2351F7EBE3F0E08A818083CE017F
:100230000C9698A38F8FE4E7F0E0FAA3E9A3FAE025
:10024000FBA3E9A1FAA1008089A19AA101969AA332
:1002500089A3EF8DF8A100828F8D98A1019698A3B4
:100260008F8F9BA191509BA3EBA1EE2351F7A2E3AB
:10027000B0E089819AE0692F0E94DB03892F282F43
:1002800030E0CE010C96FC01E20FF31F80818C93CD
:100290008E899F89A88DB98DBC01CD010E94EE0188
:1002A0008981815089838981882309F09CCFA39615
:1002B0000FB6F894DEBF0FBECDBFCF91DF9108958A
:1002C000DF93CF93CDB7DEB7A3970FB6F894DEBF19
:1002D0000FBECDBF6E8B7F8B888F998FE8E3F0E0E8
:1002E00084E080838CE389836CC0CE0102969B8F6F
:1002F0008A8FE2E9F0E0FD8FEC8FFAE0FE8FEC8D63
:10030000FD8D00808C8D9D8D01969D8F8C8FEA8D4B
:10031000FB8D00828A8D9B8D01969B8F8A8F9E8D8F
:1003200091509E8FEE8DEE2351F7A2E3B0E08981CC
:100330009AE0692F0E94DB03892F282F30E0CE013D
:100340000296FC01E20FF31F80818C93CE010C9684
:1003500098A38F8FE8E8F0E0FAA3E9A3FAE0FBA303
:10036000E9A1FAA1008089A19AA101969AA389A383
:10037000EF8DF8A100828F8D98A1019698A38F8FA1
:100380009BA191509BA3EBA1EE2351F7ABE3B0E00F
:1003900089819AE0692F0E94DB03282F30E0CE018B
:1003A0000C96FC01E20FF31F80818C938E899F894C
:1003B000A88DB98DBC01CD010E94EE0189818150CB
:1003C00089838981882309F090CFA3960FB6F8948A
:1003D000DEBF0FBECDBFCF91DF910895DF93CF93E6
:1003E000CDB7DEB728970FB6F894DEBF0FBECDBFEE
:1003F0006D837E838F83988725C019821A821B8222
:100400001C820CC0000089819A81AB81BC8101965D
:10041000A11DB11D89839A83AB83BC8389819A8195
:10042000AB81BC818F369105A105B10558F38D8153
:100430009E81AF81B8850197A109B1098D839E8303
:10044000AF83B8878D819E81AF81B8850097A10564
:10045000B10599F628960FB6F894DEBF0FBECDBF52
:10046000CF91DF910895DF93CF93CDB7DEB7C65418
:10047000D0400FB6F894DEBF0FBECDBF1982CE01BB
:10048000029624969FAF8EAF2497ECE9F0E0269673
:10049000FFAFEEAF2697F0E42796FFAF279726969B
:1004A000EEADFFAD2697008026968EAD9FAD2697C8
:1004B000019626969FAF8EAF26972496EEADFFADA0
:1004C0002497008224968EAD9FAD249701962496A2
:1004D0009FAF8EAF249727969FAD27979150279671
:1004E0009FAF27972796EFAD2797EE23C1F6EAE354
:1004F000F0E08FEF8083E1E3F0E08FEF80831982FB
:1005000055C1ABE3B0E08981882F90E09C01220FB8
:10051000331F220F331F220F331FCE010196820F8C
:10052000931FFC01319680818C93E2E3F0E081E03F
:10053000808363E070E080E090E00E94EE01EBE3F6
:10054000F0E01082E2E3F0E0108264E070E080E02E
:1005500090E00E94EE01ABE3B0E08981882F90E04B
:100560009C01220F331F220F331F220F331FCE0196
:100570000196820F931FFC01329680818C93E2E3F7
:10058000F0E082E0808363E070E080E090E00E9431
:10059000EE01EBE3F0E01082E2E3F0E0108264E0D1
:1005A00070E080E090E00E94EE01ABE3B0E0898172
:1005B000882F90E0880F991F880F991F01969C0142
:1005C000220F331FCE010196820F931FFC0131963B
:1005D00080818C93E2E3F0E084E0808363E070E06C
:1005E00080E090E00E94EE01EBE3F0E01082E2E3B5
:1005F000F0E0108264E070E080E090E00E94EE01A4
:10060000ABE3B0E08981882F90E09C01220F331F7B
:10061000220F331F220F331FCE010196820F931F2B
:10062000FC01349680818C93E2E3F0E088E08083E3
:1006300063E070E080E090E00E94EE01EBE3F0E028
:100640001082E2E3F0E0108264E070E080E090E08D
:100650000E94EE01ABE3B0E08981882F90E0880F23
:10066000991F01969C01220F331F220F331FCE01C9
:100670000196820F931FFC01319680818C93E2E3F7
:10068000F0E080E1808363E070E080E090E00E9431
:10069000EE01EBE3F0E01082E2E3F0E0108264E0D0
:1006A00070E080E090E00E94EE01ABE3B0E0898171
:1006B000882F90E09C01220F331F220F331F220F3F
:1006C000331FCE010196820F931FFC013696808165
:1006D0008C93E2E3F0E080E2808363E070E080E00E
:1006E00090E00E94EE01EBE3F0E01082E2E3F0E044
:1006F000108264E070E080E090E00E94EE01ABE3E5
:10070000B0E08981882F90E09C01220F331F220FD7
:10071000331F220F331FCE010196820F931FFC015E
:10072000379680818C93E2E3F0E080E4808363E09D
:1007300070E080E090E00E94EE01EBE3F0E01082D8
:10074000E2E3F0E0108264E070E080E090E00E947C
:10075000EE01ABE3B0E08981882F90E09C01220F8D
:10076000331F220F331F220F331FCE010196820F3A
:10077000931FFC01389680818C93E2E3F0E080E8DF
:10078000808363E070E080E090E00E94EE01EBE3A4
:10079000F0E01082E2E3F0E0108264E070E080E0DC
:1007A00090E00E94EE0189818F5F89838981883082
:1007B00008F4A7CEA4CE991B79E004C0991F961720
:1007C00008F0961B881F7A95C9F780950895F894CC
:0207D000FFCF59
:1007D2003F0C5B5E6C76771C7F7E3F0C5B5E6C76BB
:1007E200771C7F7E3F0C5B5E6C76771C7F7E3F0CB6
:1007F2005B5E6C76771C7F7E3F0C5B5E6C76771C53
:100802007F7E3F0C5B5E6C76771C7F7E03999983BB
:10081200939919FF07333307273333FF0F67670FA6
:100822004F6767FF0F67670F4F6767FF1FCFCF1FC6
:100832009FCFCFFF3F9F9F3F3F9F9FFF7F3F3F7FC6
:0C0842007F3F3FFFFF7F7FFFFF7F7FFFB6
:00000001FF
