:100000000C94A9150C94C6150C94C6150C94C61521
:100010000C94C6150C94C6150C94C6150C94C615F4
:100020000C94C6150C94C6150C94C6150C94861D1C
:100030000C94C6150C94C6150C94C6150C94C615D4
:100040000C94C6150C94C6150C94C6150C94C615C4
:100050000C94C61538163816381638163816381651
:1000600038163816751675167516751675167516B2
:1000700075167516B216B216B216B216B216B216BA
:10008000B216B216EF16EF16EF16EF16EF16EF16C2
:10009000EF16EF1664176417641764176417641774
:1000A00064176417A117A117A117A117A117A1170A
:1000B000A117A117DE17DE17DE17DE17DE17DE1712
:1000C000DE17DE171B181B181B181B181B181B1814
:1000D0001B181B188D188D188D188D188D188D18DC
:1000E0008D188D18A318A318A318A318A318A31864
:1000F000A318A318BB18BB18BB18BB18BB18BB1898
:10010000BB18BB18D318D318D318D318D318D318C7
:10011000D318D31880808080808080808080808009
:1001200080808080808080808080808080808080CF
:1001300080808080808080808080808080808080BF
:1001400080808080808080808080808080808080AF
:10015000808080808080808080808080808080809F
:10016000808080808080808080807F7F80807F8092
:100170007F807F80807F807F807F807F80807F8086
:100180007F7F7F8080807F7F8080807F8080808075
:100190007F7F7F80807F80807F7F8080807F7F8067
:1001A0007F807F807F807F7F807F807F807F807F58
:1001B000807F7F808181807F8081807F7E7E7E7E48
:1001C0007F7F7E8080808180818080817F7D7F7F36
:1001D0007F807F7F808081807E7F7F7F807F808027
:1001E0008081807E7F808081807F7F7F80807E7F16
:1001F000807F8080817F7F81807D7E7F7F80808106
:100200007F8081807E7E7F7F807F807F7F81807EF8
:100210007E807F8080817F7F807F7E7E7F7F8080E9
:10022000807F8081807E7E807F7F7F807F7F8180D6
:100230007F7E807F7F7F807F7F80807E7E807F80CB
:100240008080807F80807F7E7F7F7F8080807F80B6
:10025000807F7E7F807F80807F7F80807F7F7F80A8
:10026000808080807F7F807F7E7F807F80807F7F97
:1002700080807F7F7F807F7F7F80808080807F7F86
:100280007F7F7F807F7F7F8080807F807F7F7F8078
:10029000808080807F7F7F7F7F7F807F7F80807F67
:1002A0007F7F7F7F7F7F7F80808080807F807F7F58
:1002B000807F7F807F7F807F807F7F808080808045
:1002C000807F7F7F7F8080807F807F7F8080808035
:1002D0007F7F7F7F7F80808080807F7F7F80807F27
:1002E000807F807F7F807F7F7F7F7F808080807F17
:1002F0007F7F7F808080807F7F808080807F7F7F06
:100300007F8080807F7F807F7F808080807F7F80F4
:1003100080807F807F7F7F7F7F7F808080808080E4
:10032000807F7F80807F80807F80807F7F7F7F7FD6
:100330007F80807F7F807F8080808080807F8080C2
:100340007F7F7F7F7F7F807F7F7F7F7F7F807F80BA
:10035000808080808080808081807F807F7F7F7EA2
:100360007F7F7F7F7E7F7F80807F7F80807F808098
:100370007F7E7F7F80817F7F7E7E80817E7F818088
:100380007E81848585828283817F7D7D7D7B7B7C70
:100390007C7C7C7D7F7E828181837F7E8180818663
:1003A0008585827F7E7D81868A7D7A7D787D79765E
:1003B0007C85807E807B7B7D817E86888182858333
:1003C000807E7D7E81877E8A817678747875888349
:1003D0007E81797B848782898B827D80837A7D8010
:1003E000797A7F8086958171736F7276747D898149
:1003F000828884838B908A86847B76786C74817BF8
:10040000868389837F8173777D7C7C8586847E82E9
:10041000858489868686877E7873786367887E7B05
:100420009098818182848688747A81707B858A7FA6
:100430007F7E7C82838B7A7D837A7569888A7C8EC5
:100440008E87816A83848382747F82876F8A8D7BA3
:100450008683787D8D806C7E7C748B8D83788081A3
:1004600074877D748C84837C727B8D7C768C848293
:100470008B81737A807877847F828E837B797B7C93
:100480007D87878284817A76777B7E848685838365
:10049000827E7A7A7A7B7F8182838383817E7B7C72
:1004A0007D7F81818080807F7E7D7D7F8082828252
:1004B00081817F7D7C7B7D7F818282828281807D44
:1004C0007D7D7E7F8081808181807F7E7E7F808038
:1004D000807F807F7F7F7E7E7F8080818181808022
:1004E0007F7E7E7E7F8080808080807F7F7F7F7F19
:1004F0007F7F80808080807F7F7F7F808080808002
:10050000807F7F7E7E7F808080808080807F7F7FF5
:100510007F7F7F80808080807F7F7F7F7F80807FE4
:100520007F807F7F7F7F7F7F7F80808080807F7FD5
:100530007F7F7F808080808080807F7F7F7F7F7FC4
:1005400080808080807F807F7F7F7F7F80808080B1
:10055000807F7F7F7F807F808080807F7F7F7F7FA5
:100560007F7F80808080807F7F7F7F7F7F80808093
:100570007F807F8080807F7F807F7F807F7F7F7F85
:100580007F7F7F7F808080807F80807F7F7F7F7F75
:100590008080808080807F7F7F7F7F7F7F7F808063
:1005A0008080807F8080808080807F7F7F7F7F8051
:1005B00080807F807F80807F7F80807F8080808040
:1005C000808080807F7F7F7F7F7F807F7F80808033
:1005D000807F7F80808080807F807F7F7F80808021
:1005E000807F7F7F807F7F807F7F8080807F7F8014
:1005F00080807F7F8080807F7F7F7F7F7F7F7F8005
:100600008080808080807F7F7F7F808080807F80EF
:100610008080807F7F7F7F7F7F808080807F7F80E2
:10062000807F807F7F80808080807F80807F7F7FD1
:1006300080808080807F7F7F7E80868280807C80BB
:100640007F7C7C7F837F81817C81817E7D7D8280B8
:100650007E827D7F87807F7C7B827F7F808184809C
:10066000817F7B7F7E7C7D7D818281847F7E818096
:100670007E7D7F7F8082817F8080807D7E7F7E8087
:100680008180817F807F7D7F7F7F818280807F7F6F
:100690007F7E7F7E7F8181808180807F7E7F7F7E65
:1006A00081807F807F80807F807F7F80807F81814D
:1006B00080807E7E7E7F80807F80807F807F7F7F46
:1006C0007F80807F808180807F7F7F7F80817F802F
:1006D000807F7F7F7F807F80807F80807F7F7F7E25
:1006E0007F7F80807F80817F80807F808080807F0F
:1006F0007F807F80807F7F7F7F807F80817F807F02
:100700007E807F7F807F80817F7F807F807F7F80F2
:100710007F80807F7F807F808080807F80807F7FE0
:100720007F7F808080808080807F80807F7F807FCF
:100730007F8080808080807F807F7F807F7F8080BF
:1007400080807F807F7F808080807F7F7F7F7F80B1
:100750007F807F8080807F7F7F7F8080808080809F
:10076000807F80807F7F7F7F7F7F80808080807F91
:10077000807F80807F8080807F7F7F7F7F7F808081
:10078000808080808080807F7F7F7F808080807F6E
:10079000807F8080807F80807F7F7F7F7F80808060
:1007A0008080807F7F7F7F7F80807F807F80808050
:1007B000807F80807F7F7F7F7F7F7F7F807F7F8044
:1007C00080808080807F7F7F8080807F7F7F7F7F31
:1007D0007F7F7F7F80808080807F7F807F7F7F8022
:1007E000808080808080807F7F7F7F7F7F80807F10
:1007F0007F807F7F807F7F7F7F7F80808080808001
:100800007F7F7F7F7F7F7F7F7F7F7F7F8080807FF5
:100810007F7F7F807F7F7F7F7F7F808080808080E1
:10082000807F7F7F7F7F7F7F80807F7F80808080D1
:10083000808080807F7F807F808080807F7F7F7FBF
:100840007F807F7F808080808080807F7F7F807FAF
:10085000808080807F7F7F7F807F7F807F7F7F80A1
:10086000807F7F7F7F7F7F7F7F7F7F80807F808093
:100870007F7F7F7F808080808080807F7F7F7F7F81
:100880007F7F80808080807F8080807F80807F7F6E
:10089000807F7F80807F80807F7F807F808080805E
:1008A0007F7F7F7F807F7F80807F80807F7F7F7F53
:1008B0007F80808080807F807F7F7F7F7F8080803F
:1008C0008080807F7F7F7F7F7F7F808080807F7F31
:1008D00080807F80807F7F7F7F8080807F80807F1F
:1008E00080807F7F7F7F808080807F7F7F7F7F8011
:1008F000807F7F7F7F8080808080807F80807F7FFF
:100900007F7F80807F7F807F7F7F80807F807F7FF1
:100910007F7F808080818080807F808080807F7FDB
:100920007F7E7F7F7F807F7F7F7F807F8081807FD2
:100930007F7F807F7F7F7F7F7E7F7F80807F8080C3
:100940008080807F7F807D84857F81807C7D7F80AB
:100950007F7E7E7E7E81838282817E7C7F7E7E849E
:10096000827D7E7E7C7E8381807D7D7E7E82838291
:100970007F7E7C7E7F8487807F7B7C80807C7F877E
:100980007E7E827B7F83807F7A7E817D828382816F
:100990007F7C7D7E817E7B867F7C837E80837E7F65
:1009A0007E7E847F7F817D80817E7F807F827F7F4E
:1009B000807F80807F7F7F7E82807F817F7F807F3E
:1009C0007F7F7E81807F81807F817F7F807E80812D
:1009D0007F807F7F807F7F807F80807F80807F801F
:1009E0007F7F807F80807F80807F808080807F7F0E
:1009F000807F7F807F8080807F7F80807F80807FFE
:100A00007F807F7F7F7F808080807F80807F807FEE
:100A10007F80807F8080808080807F7F7F7F7F7FDE
:100A20007F7F807F807F7F80807F80807F807F7FCF
:100A30007F7F80808080807F7F7F7F807F7F807FBF
:100A40007F7F7F808080808080807F80807F8080AB
:100A5000807F7F7F7F7F7F7F80808080808080809D
:100A60007F7F807F7F7F808080807F7F7F7F7F7F91
:100A7000807F7F7F7F7F7F808080807F8080807F7E
:100A80007F807F7F7F7F7F808080808080807F806D
:100A90007F7F7F7F7F7F80807F7F807F7F80807F61
:100AA0007F7F7F8080807F80807F7F7F7F80807F4F
:100AB000807F807F7F7F7F7F7F8080807F7F7F7F41
:100AC0007F7F7F8080807F7F807F8080807F7F7F2F
:100AD0007F7F80808080807F7F807F7F807F7F7F1F
:100AE000807F7F7F7F7F7F8080808080807F80800D
:100AF0007F80807F7F808080807F7F7F807F7F7FFF
:100B00007F7F7F8080808080807F7F7F7F7F7F7FEF
:100B1000808080807F7F7F807F7F7F7F7F7F7F7FE0
:100B20007F7F7F7F7F807F8080807F80807F7F80CE
:100B3000807F80808080807F7F807F7F80808080BA
:100B400080808080807F808080807F7F7F7F7F7FAC
:100B500080807F7F7F7F7F7F80807F7F7F7F7F7FA1
:100B6000807F7F7F7F7F7F807F7F7F7F7F7F7F7F93
:100B7000807F7F7F80808080807F7F7F7F7F7F807E
:100B800080807F807F7F8080807F7F80808080806A
:100B9000807F7F7F808080807F7F7F7F7F8080805D
:100BA0008080808080807F807F7F7F7F807F7F804C
:100BB000807F80807F80807F7F807F7F807F7F7F3E
:100BC0007F7F8080808080807F7F7F7F808080802B
:100BD0008080807F8080807F7F8080808080807F19
:100BE0007F7F7F7F807F7F7F7F81807F807F80800E
:100BF0007F7F807F7E83807C807D7E807F807F7F03
:100C00007F7F807F8281807F7F808080807F8181E5
:100C10007F88817E80797F7E7C7880847A82837EE3
:100C200084827E7B81847B807F7C868081847F7FC1
:100C3000777A7D818180877F7B827E7E817B7C7ECF
:100C400083837D817F81817F7E7E827C7C7F7E87A6
:100C50008683837B7B80807F7C7C7F7E7E807E81A1
:100C6000848080807F81807E807F7F82818482807B
:100C7000817F80807F7F7C7A7A7A7E818384828282
:100C800082817F807E7E7F7D7D7F7F7F807F818070
:100C9000818281807E7E7E7E7F817F8081807F8059
:100CA0007F7F7F7F7F7E7E8080808080808080804D
:100CB0007F7F7F7F7F7F7F808080807F8080807F3D
:100CC0007F7F7E7F7F807F8080808080807F7F802D
:100CD000807E7F7F7F807F7F7F8080807F7F7F7F20
:100CE000808080807F80807F7F807F80807F7F7F0B
:100CF00080807F7F807F808080807F80807F7E7FFC
:100D00007F808080808080807F7F7F7F7F7F8080EA
:100D10007F80807F7F807F8080807F7F807F7F7EDD
:100D20007F7F808080807F80807F7F807F7F7F80CB
:100D3000807F80807F7F807F7F80807F7F80807FBB
:100D40007F7F7F7F8080807F8080807F7F7F7F80AC
:100D500080807F80807F7F7F807F80807F7F80809A
:100D6000807F7F7F7F8080807F7F807F7F7F807F8D
:100D70008080807F7F7F7F7F7F7F7F7F7F8080807D
:100D80008080807F7F7F7F7F7F7F7F80808080806B
:100D90007F7F7F7F7F8080807F7F7F7F7F7F807F5F
:100DA0007F808080807F7F7F7F7F7F80808080804A
:100DB0007F7F7F7F807F7F7F807F808080807F803C
:100DC00080807F80807F7F807F7F80807F807F7F2B
:100DD000807F7F807F7F7F7F7F80808080807F7F1C
:100DE0007F7F7F7F7F7F7F7F7F7F7F7F7F7F7F8012
:100DF0008080807F7F7F7F7F8080807F7F80807FFB
:100E00007F7F7F7F7F8080807F7F807F7F807F7FED
:100E100080807F8080807F7F7F7F7F7F7F7F8080DB
:100E200080808080807F7F7F7F7F80808080807FC8
:100E30007F7F7F7F7F7F807F7F807F8080808080BB
:100E4000807F80807F7F7F7F7F7F807F7F7F7F7FAE
:100E50007F807F80808080808080808080807F8095
:100E60007F7F7F7F7F7F7F7F7F7F8080807F7F7F8F
:100E7000807F80807F7F7F7F7F807F7F7F7F80817B
:100E80007F7F807F7F7F827F757F8A7F7B8E8A7462
:100E900078837E767D867F7C827E7C8184827D7D68
:100EA000807F839688717F887C758388817E7F7C34
:100EB000777F7F797B81817D84837A7A827F7F834C
:100EC00082818182807C7E807F837E8274738A7C33
:100ED000717D8A7F7C857F7C83877F8186847E7E0F
:100EE000837C7D82817B7C818289827B7A787A7C1B
:100EF000787C858280848380838B9084797E7E79E0
:100F0000737A827C838181828082797D7E7C7C85FC
:100F1000867F7F80807F84838282847E79797C74DF
:100F200070827F728498817C86837E877C788077CC
:100F3000797D827F82818185858C8785827E7A6DAD
:100F4000787C797B85827D7985878B8B8289828885
:100F50007B8785706F7B706E8A7C778B8480958FA2
:100F60008E887D84737B7F6A6E7E6E6F80728D90BB
:100F700081999588968C7A80756B676471786C809E
:100F80008174909089A0968D96807E796B6F6D604C
:100F9000757C6A88817F988B909D8A8E9078807905
:100FA0006B72665B796C6E97828EA18B9C9A828F36
:100FB00080717D6D67745C6A806189907FA99B8E6A
:100FC000A7877F8A68707462716C60887578A17F6A
:100FD00094A2879D93758872637A67687762818629
:100FE00072A08E89A8898B99757C7D6075766678EC
:100FF0006F758D778E98819D9282947D71816C70D2
:10100000806D747A6E897E7F9B819098808D8771C8
:101010007E756981786F7D6F7F86779689869A86DF
:10102000868C77797C6B797D6B7B73768A768E90F4
:1010300082988C848E7C747D6F7482717578728ACC
:10104000798695809491828C81727C736E8278709F
:101050007B73847F8097848E938287857478786E83
:101060007E7E6E7A757E847B93888A958585867868
:10107000757A7079846F76787A847C908B8894877F
:10108000858679747A71768473727979837E8D8E90
:1010900088958A83867B7379737384766E7A7A8077
:1010A000808D8E8A958A84847B7278747484786E3D
:1010B000787B7E7F8E8E8A968B83857A7178737229
:1010C000837A6E777E7D80918D8B978B8385786F09
:1010D00078727283786E777E7E81928D8C978B8307
:1010E00084796E77737281796E76817D80968C8C2F
:1010F000998B8386786D78717281776E76827D8127
:10110000988C8E9A8B8386776C786F737F736E76EC
:10111000837C859A8B919A898386726C786D757DB4
:10112000716D79857A8C91859998848C8B6D7274A8
:101130006877796E6E84837D97938C9B93818A7E8A
:101140006A82786A7873656E877A87A08C939B89A8
:101150008287736D756B747A746979837495998AD3
:101160009C988588826A73726A776D606F867B86C9
:101170009F8E939F8C828C776E7C6C73796E667772
:101180008076969A8F9D998588856B77756D797233
:10119000656C8274859D8D98A293868A7570796B33
:1011A00074756A637A7B759B938FA194858E816D2C
:1011B0007E706F776C6070806E8F9B8B9E9E888A2E
:1011C0008B6875796B767362678370819F8B98A249
:1011D0008E879175737F6C737669617E78729C904F
:1011E0008DA39585927F6D81726E776D5D74806E33
:1011F000969A869D9E838E8D6B7E7C6A73735D6AE4
:10120000856A849D8795A38A86957275846F6F78A9
:10121000645F8571749E8C89A18E7F987E6F8677BE
:101220006A776D5A7E7E6C9596849B9F7E8F8E6EBC
:1012300080836B6F76596F866B879C878FA38784BB
:101240009677758573687A6864837479958F879EBD
:1012500095809186737F7E66706F607B7D778B93C0
:1012600088909987898D7D788071697369727E789D
:101270007D8D8A87948D868C867C7F7C6F7573705C
:101280007C7F79818881858F89848B857D7F797644
:101290007B7A79817F797F7F7B7F85848387868254
:1012A000807D7D817E7F857F7C7D78767C7D7F845F
:1012B000838384838180807D8082807F807B787B34
:1012C000797C818184878280837F7D7E7D7F818020
:1012D0007E807E7B7C7D7F818585858480807D7A14
:1012E0007C7D7E81848182827D7C7D7E7F83828203
:1012F000827D7C7D7B7E808184878582807C7B7BF8
:101300007D7D80827E7F7F7B7C7F7E8387858885D5
:10131000807F7C78797A7A7D7F807F7F807D8084F2
:101320008588888483817A7976747A7B7D828382CA
:101330008383828385868485837E7D7874767779BE
:101340007F8182878685868383828283827F7B7882
:101350007776767B7C81878786888582827E7F8090
:101360007E7E7E7B7978797A7E8285868986838384
:101370007F7D7E7B7B7E7C7D7E7C7C7E8081848687
:10138000858584807E7D7A7A7D7C7E818182828063
:101390007F8180818382807F7E7B7A7B7B7D81835E
:1013A00085878582817D7D7E7E7E7E7E7C7B7C7C4A
:1013B0007C808385888785847F7D7C7A7A7C7C7C31
:1013C0007D7D7E7F81838487868585817E7D79781A
:1013D0007978797D7D808282858585858584838104
:1013E0007F7C79786F646B7E8C909190877B7A7E1E
:1013F00083898884817C7672727981827D7B7F8FFC
:10140000A8A48061627D9596816B6A7680827974EA
:101410007A848B8983838785827A757A80837F7FBC
:101420007B74787E808187837C7273848E8F8371D6
:101430006E7C84878475727C8486888A858485899D
:1014400088838077706E7A7B787F8184848D8E8AA2
:10145000898D8B7E7B716F6F7E7C646A8094929A9B
:101460009988838F8F7973685D566F7E71809294AF
:10147000889BA592838882696E6D5F54717F7384A7
:1014800095928AABA9867675746E80755F55717E6C
:101490007896ACA0899B93797B8075677B7566662F
:1014A000798370889F9D90999874717B7A718A8CEA
:1014B000695F6177798CA6A08D889177747B7B7347
:1014C0007C8A6F6C6F777679919D9C91957D6B701E
:1014D000767C84947B6663626B7995A5A693877B03
:1014E0006B7279808590856D6E676F7A8596A7A4FB
:1014F00090846A5D677B8E9D9B78645B5E7789973D
:10150000A7A6897D76686E7C838D9B87706A5862FA
:101510007F8FA2B29E7D6D5A5A708FA4A89766598C
:10152000564E84A09BADA37C6460606889A3A69A94
:10153000785C5B4663A7A3A8B58D58515C6684B1FF
:10154000C19C7D584B4850ABC4A4A28F593D6476D2
:1015500083A8C3A06F645551458FD5AE9D98692966
:101560004F818CA6BEAA625F5B585A82D4B1818437
:101570006C3E55929C97A29D675D72695F78BEB084
:101580007D7F7A534D89A091949A765D73746970CA
:10159000A6B781767D69577CA392848A836875811A
:1015A000736480B39477877E5E63919685888F7528
:1015B000697B786972ABAB7878826B5C879F877D3B
:1015C000877F6D78816F608EB68D7985775A6B993C
:1015D000978085886F6E7F796777AFA373787E6910
:1015E000658C9F8778817C6F7E856F6490B08B75EA
:1015F000807861719B98807A7F747384806871A70A
:10160000A378747E716587A38C727B80767F8977DF
:10161000607CAC96727A7E696A94A081717D7E78D6
:10162000888A6F5F80A88F727F80687199977974BC
:101630007E827E8B8668587EAD94757F7E677398B8
:10164000957B747A85848B88675475AB9D7C7C7B95
:101650006B6F8D978375788885868969556DA3A989
:10166000867675726C839A8B757584898788715EAE
:10167000608BB199726D78707A96987C6E798B8A4E
:101680008680695E6DA1AC806B747974849A8C716C
:1016900071878C87897665617DA89C736C7E7C7967
:1016A00089937D707C8D8F837464606094BF9B731D
:1016B00071796E6F8C9D8577868C7D787A76686B74
:1016C0009CA5797192977568807E72879B917C72D8
:1016D0006C6C617BB4A36A6280897F8A9579607043
:1016E0008E968A837A634D7CB8A16F6B7F7669880A
:1016F000A1836E7A8380848E86685685AD896881E1
:10170000977F6B7E8A7B78868F837C817C63659DE7
:10171000A9776488967A7087866E7C9294827B7AA9
:10172000695D7BAEA36E658287787B8C836E768BDA
:10173000968D827E614F80B29466768D7C6F828FAB
:101740007E6E7C8C8A8784795C6498A17869898FA5
:10175000787382897E7E8D968B7B7468597EAB917F
:1017600066708A887A7F8B827580949281776E58B2
:101770006BA5A979687E897D7B8C887777858F8931
:101780007C73605E8EA986697B9084727F8A817B80
:101790008690897772695B81A98E64708E8A7A825D
:1017A0008B8078818D8B7E7368597AA99A70718944
:1017B000897C808B847B7B85887F766F6079A49C15
:1017C000716C868C7A7A89857E8088877A76736355
:1017D0007BA59A6E67858D7A798A837A7E8A897EDF
:1017E00079756379A3946C68858F7C7789867A7E16
:1017F00088887B7778687E9E8D67688893817788F4
:10180000877A7C8A8D7B75756C839A88666B8C95DC
:10181000817886847B7E8C8B7773716E8B9A8264E1
:101820007293937D7782807C838F8873716D7093C0
:101830009B7D617996907976827E7D8893846D6FA9
:101840006A739A9F7A617B938A747783817F8C9481
:101850007F696A687CA29E77647D9086757B8581AE
:10186000818E917B68686886A79873667F8B827982
:101870007F8480808C8C7B6D67678FA9926E678375
:10188000897F7D808281818B89786F676A96A58C3C
:101890006C67858B7F7B7E8184818C8B746D696F97
:1018A00098A08A6E69858F80777A7F85838F8C6F09
:1018B000696A779C9D876D6C858E7F777B7B83883B
:1018C00092896E6A6A7BA19C806A70868A7E7A7E23
:1018D000797D8A95866D6C6D7EA29A7B65718A8B07
:1018E0007C78817E7A8797866C6D6F80A397786409
:1018F00072898A7F787E7D7E8695896E6D6E80A3E3
:101900009474677789887F7A7C7D828991857170EC
:101910006C7CA4976D5F7C988D75737F81818A94B0
:10192000826F736E749F9D6E5778A295716D8386DA
:101930007F85928873726D6A97A77A566D9D9979A3
:101940006F81857F818E8D7772716484AD8E5B5DD2
:1019500090A0866F7A88827D898F7A71786B6DA16D
:10196000A36F5378A49671718474758E907D7F8B6C
:1019700077567AAE90595E9CAF8260778E897F8071
:10198000857D7782866C829A8262719D9D776B815C
:1019900087817F86837575775E6EAAA16D5C8EA741
:1019A0007F61759089807D8982787973576AABAA47
:1019B000725B8B9F7A5E7B968B7C7C887F797B7455
:1019C0006088B39565689A976F688A8E7E78828FF3
:1019D00082797B715A83B18D5D6E9E9C7868838E0F
:1019E0007C75898F807C7B6D5680B093626C9992F8
:1019F000756F7E80777C8B8D807E7F735479BCA0E1
:101A000061609197695F8B8E747B8F8D7B86826D11
:101A10005870B2A5675D929F766986947B738395B3
:101A200086798275595FA2AD756286A380697D91C2
:101A30006F6C9796857C8B7C675A75B096686994B5
:101A400097726978836F7F9B9C88847E706B5A7ACB
:101A5000AB936574958B6E6B89886A78979C7F7F52
:101A60008A7165636E9DA075708F8B69718B8E73A3
:101A700077949C8F848479655E6685A38572808F58
:101A8000746C919179718C9B9386877667655C669F
:101A90009C9A79838E8B71829481657B948B8C86E2
:101AA0007D6B61676572A79C868E8B7C75817C736C
:101AB0006B8D9381897E6C727163638FBD97798A18
:101AC00090696987807471898D808C8B727270685F
:101AD000709DAC88828A835D7289676385958B90DF
:101AE0009C856B74726272AA9E8086896E50788A19
:101AF00069759C938A97927570766E6373A29081D4
:101B0000887B6B6A82837485998587988B78766DDC
:101B1000635777A68C88937D6D73868075869389CD
:101B2000909B7C6E73655C608FA48491997A6E7CC7
:101B30007F737B8F8882918E747B795A58719897C6
:101B40008EA5916C7283747080807C8B9D89777E6A
:101B500067566B8093949C9F82727B7165748080C2
:101B600088958C7D83856B626E798D979E95797350
:101B70007B6E6A7C7C78899A988F8D795E5B6581B3
:101B8000949599927D7973636B7C7F899F9E8C87F6
:101B9000806A62636A86908F998B797B756F787F94
:101BA0007B87988E8B9683655E5A6A858B979C8B14
:101BB00087836F6A7578798D9B9593897261565B7F
:101BC0007B898EA29A8986786D73737685928E90C2
:101BD000967F6A61576783859AA68F8F886B6C752D
:101BE0007078898D8F978B766D615A788288A79BE4
:101BF000898E7C6B7874687A8989909788796E5A17
:101C00006A7D7A939E8E938E75706D67707E8A92D0
:101C10009A958478635C7175869D939692767069C7
:101C200060757B8099A09B8D7667626D717D9892BF
:101C30008F937B7482716D7B7E8B979A9086756291
:101C40006E696B8B8C8494937F85786C76728093AD
:101C500096928B7C63636C68788B8D989D87837D6F
:101C60006B72797C808A8F847E72687069719093C0
:101C700090968F8983767775717D84898A84816F48
:101C80006D747382898B97968D857A716E69748273
:101C900089949188796B7170758690959289847D0D
:101CA0006C6A6D76838B968F817B75727173858B71
:101CB000828E91827B747778727C84858C8C8A800A
:101CC0006D74706D80848D9386858B7A7274738148
:101CD0008C9895887E686A6C68808B848E958A89DA
:101CE0007D737A7A7E848D898284756D7670718237
:101CF000808B978F8B8C7F777970717D87888985B2
:101D000075746C647E8889999A8B8C836F726A6A09
:101D10007E87858989776E74737F8E828A9987839F
:101D200088766F76727981858D898180867A6A7EE0
:101D300081778A8E8389867A7B716C7E8388979976
:101D4000887A7365697D797F948B858A80767876C9
:101D50007F8D858A8F7F6D71776B76837D838A8790
:101D60008C8E85868376747B7A7981817C7B766F95
:101D7000777E7F8E97938F8980726F74777A878B47
:101D800087817A75757E8284868382807E7C7F805F
:101D90007B7C818686838488857C7A787271787F63
:101DA00081898D837B7C7F8080878D8A8681766F19
:101DB0007074787C828887837E7F86827E82868527
:101DC000807F7F7C787B7D78767A7F7E818C8A832A
:101DD0007F80807E8084858585827A767674757C26
:101DE00082868884807F7F7E7F8286858183867FCE
:101DF00077797B777B807E7C7E8184848382807F01
:101E00007C7F84878482817E7A7675757780888AE4
:101E1000837E807D7A7F8484848988847F777574CB
:101E2000757D807E7E8181838484807F7F838888A6
:101E300086837C7778767578787D858988847F7CC1
:101E40007D7F83888A88868078777977757A8081A4
:101E5000808083807F83807F82878685868480766A
:101E600074797A787A7D818586817D7F7F80848789
:101E70008A8B857C7777797A777B807F7E7F7F807E
:101E8000868681838989817D82827D7A7B7C787850
:101E90007878808787838382828280818488878024
:101EA000797A7972747E80818283818083847F8154
:101EB00086878584827B787A7A797D7E78797F853A
:101EC00086848685828180818284827F7D7978760E
:101ED00074757D888781838A887E7C8081818587EF
:101EE000807A77776A61768B89838E998C78757A18
:101EF000818686838784796F7684837A717385A0DF
:101F0000B1906963748F947C6B7D8D8779686D76F1
:101F1000858F7D7C8591968771697A8285817C84A5
:101F2000827A707371758D8776747E909F91726AD4
:101F30006B80918A807C7C797D73697F868695939E
:101F400088928D78736B7684848C89796A75766EC5
:101F5000848B8A928C88948B7E7A6064818F988738
:101F600079727277727F7E81929284857D74816DA1
:101F7000758889958B83776A636B7A778598947D6A
:101F80007D817B89817E7F7B8F8D7F716264697BA0
:101F9000888E98918B97967C77747077758F8C79F3
:101FA000796E6D687E8C8495A29488847072727745
:101FB00085738492847E746F63758E909498887C08
:101FC0007E6D7674708A8389938272717B6D748959
:101FD00088878C8785896C6F75688991898E837BEA
:101FE000777C716B7C79819A988C9377697A698018
:101FF000968A968E796A6C665F808B8FA09D8384AB
:10200000795D797781A293938566546A7F6E859511
:102010008A8E95807E8B6E7C7E6A8A8D84837D6FAE
:10202000697B6F758E86869D9A8596765D6C576EF8
:10203000929DA18E76575F696A93A39AA5A2727446
:102040007954697C879C9B9680675A5E7C7E92B1AE
:102050008F738A806B848278797481838F9E8B776B
:102060005E717D5E7D9A888AA78F777761636586CA
:10207000A2A2A58F784B3F6D7780A9AE8D8980692C
:102080006D727A7E7F9196877F7D705C667F7582A8
:10209000A3968590887376757B7373909698907FDE
:1020A0006A4C5A797D95B09A8C8E786D676A76798C
:1020B0008D9C9E99836B5B4B678A87A5B2907B76DC
:1020C0006E6B737A7F818B8F93957E6B5D54759069
:1020D00088969F888183746F7372748393919593AC
:1020E000806C5D4F68898EAAAA8B81766167797D45
:1020F0007F8A9996988F6E57575C7A9597A89D7BA3
:10210000797A6A687580859198878B8F7A61595939
:10211000729697A4A7836E6D6B717E7D7A8A9D926D
:102120008E8E765A565E71A09F989E8371746B62F4
:1021300075888C8B988F82857C705E5C6895A49A7C
:10214000A5886164767577878D838C948C83777787
:1021500066616D8CA28A8A957E65717B72788B929E
:102160008A8889867F7F7C655A6797A889908D6861
:102170006079887B77878E8C8E90856E6E776E67A0
:1021800075A09B7C8A8872677883777F9397817D1F
:10219000888477777B6C5F70A5A0808175605D8691
:1021A00099908A91917467778F8B898B6F57538839
:1021B000AA969992774C5893A5978B8870637596D9
:1021C0009C847B6B56537DC1B67E686863638CA824
:1021D000987270837C7B8A9380727C81766271A511
:1021E0008A5A68898C7D8E90796176979789858BDC
:1021F0007B69779185645B8E9578869C8F65698015
:10220000847785A39068698D9685808169545D9BEC
:10221000BD9678727A6E728E91746A89968576828E
:102220008A7E737F806F5F71A7A1837B837A646DE1
:1022300083897B84939178666F838A8A917D6551C7
:1022400076ACA486767B6D637799927C7781897D65
:102250008397A07E686D6B656AA2B48C6671847486
:102260006A778B838196A58F6B677C8986897D676A
:102270005269A2AD8F7273726F7889939186787D5F
:102280007D73778F9A897467636082B1AD7650648D
:102290007F8485918D786C7A9193827A8A8D837C04
:1022A0006D585689B0A17D727A7970758B91857B56
:1022B000818D8E8078858C7D615A6178AABD9C6CF9
:1022C0005B6878828C9991716480988A757985822F
:1022D000787372697DA2A686707272727A898C8612
:1022E0007879858A7E727A878B7E746E6C819C9FEA
:1022F000836B6C787F7E8690867173879187878CDD
:1023000081716C716B759BAA89686C7C7F777C8A04
:102310008B837F858D8A7D777E87806F64698CA6AD
:1023200097786E737D7771829891797883867A79C0
:102330008792866E646483AA9D7264747A767A87C3
:10234000918A7977828882818A94906F56577DA589
:10235000A27F6D777F7D7C7F818382838C917D6E70
:102360007B929177615A6F96A79476717B7F797E85
:102370008782797B8C9282737D8C8A79685A6A9A7B
:10238000B298756A6E7375838D8A817E858B807431
:102390007D8B8C7B6B626F92A28C706C7B847C7D5E
:1023A00087877E7C87908374808B8778695D719A3C
:1023B000A38A7174818276798B8C7E7E868778730E
:1023C0008694897460587FABA87E6977837F76771F
:1023D00081877F828A8A7B738291877057649BB2E0
:1023E000977065747F7C7D82867D7787958B76710B
:1023F000838E826A5F7DA09C7D6E75837D727E8BED
:10240000867C808F8E7973848A7C6F5E709BA583B7
:102410006C7988857371818A8084968D736A7D8FCB
:10242000856F5C6D9AAA8B6870878B777789836DCF
:102430007296A28162738E8B7659699FAF876373A0
:102440009087666F9090707093A0876C7286866A92
:102450005782B1AA765270938A7279888375829A6C
:10246000937268828B795D6F9EA685687578696DB9
:10247000899890807E8F9076667B978E57529CBD10
:1024800089586E938A646790A6977A7A88867E7454
:10249000717D796C859E8F6F6A84886D6B8B9A7E57
:1024A0006E8FA883586C928B60578FB79561628648
:1024B0008D6E62849A8371819B93706C7D87715C51
:1024C00089B7986265858873779E9C686091A982B8
:1024D000607C94885F5292B98C596A8F8A75778E26
:1024E00093776E8F9F806478928B5E508EB58A5DF5
:1024F000739E8F5A669A94656B9DA4796281907BD6
:10250000575EA0B68B6A777D6D62859F7F627DA6E0
:10251000967068899075585E9EBC965E668D886CD4
:10252000789A8B6A759F976961899274636A9BAC8C
:10253000846C7D8B7169879E816580A38F646889B7
:10254000917C6C697F9F9B7769777D7D8590876B98
:10255000739694766C84918070606C9BA987676C8D
:10256000787C7D8B8B73738B9980728491836D687B
:102570006C829E997B6E7B837F80877F767C8E8D3D
:102580007A7C8E8C6D6E7F69709FA6776384977D51
:102590006D8385717798997B737F828482765A697F
:1025A0009FA07C7286816F738B8A737294A38566F9
:1025B000728C877F7A6B5077B29E6E6E86766C8750
:1025C0009B806E8CA27A637C91857D897E5955971C
:1025D000B0876D7B8373749094786D7F96807186DD
:1025E000927E7988825C5299B07F6E8887686E96F9
:1025F0008F6875928F797F8F867882866F59588F12
:10260000B18D7B8A8264638993777A979273768E91
:10261000856C778E7C636181AA97838579666884EF
:102620009183808D8A7C79827F777B8A8771686FBE
:102630009A9C7C82867262788F857E909079727D7A
:10264000827E838C91816F586AA0927D86856A62B2
:10265000868F81868D7A70828C84838E9179676073
:102660005785A48D868C7F5F6B8B857E8D8A777E68
:1026700090897D838A7C6A6C616A9EA58E8C86684F
:10268000557389818A9A8E7E818077788485787562
:1026900071668BA58A82887457668C8D8A9F947424
:1026A000727976788A8F827C7A6169978B7C8D8942
:1026B0006C688C907B8C94766F7C7C7B8D94847B17
:1026C000775C548D998097A1806476806A7B9B8427
:1026D00078898679818E817776685785A28A989ED7
:1026E0007D5F69756777A1978592887172807A7727
:1026F0008177668C9E7D8C93736474766C80A196D2
:102700008490806C707F80818877678B946B8999C7
:10271000746A7E796E82968F8A90766D7D838082D0
:102720008672678779699B9471809377677E8A80C8
:1027300089977F828977767C7A667398827B9D966B
:10274000787980616D8C80839D9777838170787AAA
:102750006A5E8B997B979F6D65827466858E829188
:10276000A082758670687C7C5B69A2857FA2866981
:102770007B836A77918484998E78867D6475807274
:102780006A989A7193967179876B69908573949C16
:102790007A7B897270807A6B839C7588A4756E8948
:1027A0007A647C88768A9B837F8C75717F6D5F806D
:1027B000977891A8726F8D746886806F92987B86E7
:1027C0008971717C65598A9179A9A06C88895F6C3F
:1027D000877A7D968B8395806F7F715372997C8FFA
:1027E000AD8080946D5C7A747097988197927176C1
:1027F000775A62918285B38B729379587575678E1B
:102800009D88989677757158608E827EAD92789289
:102810007B5B7670669091839F97767D7455598423
:102820007F88B6907D97755A7C706091978FA19143
:10283000797F6E5064897385B58F86986F5F7A67EC
:102840006C92898DA7927B816C54677D7598A98560
:102850009292686B775A72928797A1867B7D6559B1
:10286000797B75A19D85978564746F628284809958
:1028700097848278626678718BA88B8C97756D7A55
:10288000636A89878E9B8F807E6C5E76766D95A15C
:102890008E988E6E73706378848898998B80745E3E
:1028A000627670869E90979B7B727962687C81903D
:1028B00099978B7B665A6F6F6F959D969F907576F3
:1028C0006A60787A83959792887B625E6B6980965E
:1028D000949FA0877C775D67757A8F9A9D8F7E6FB6
:1028E000616A666E8E8F91A39681806D66716C7E33
:1028F00090969D917E65636B68808E8C9D9A858590
:102900007B636C72788B8D92918879676D666F8A24
:102910008993A092827F6C687171828C9499887877
:102920006B6C6D6582908C9A9689867766716F75EF
:102930008B8F96928475686E636E8E8B929E908755
:10294000836C6A756F7F898C968F7D6B70726579E9
:102950008A8A97998A8980686D717887899191822E
:10296000736770707289868A998F83897A6E77709F
:102970007C8B888E8D816D65716A79908B9597833C
:10298000828771727871838A8D9284786B6E6F6A98
:102990008387879D99858679677876778E8A868BF7
:1029A000887566726E728C8688998D828A7B707744
:1029B0006E7D8F898A8A7F6E6B746A7C9085919810
:1029C000837D81727A7E73858B8689847A6D6E7140
:1029D0006F868B87989481817B6B77787C91908BC5
:1029E000847B756C706D768D897D7E8D9385728606
:1029F0008F67678C9A92817B7574715C76959396DC
:102A00008E8085857F9980526F929A8B7776767AC1
:102A10006759809594968C81847D707C706E878ECA
:102A200090857C746F77676E8A8B949A8B7B6F64CA
:102A300079886B7087969F8B736A7376677C8D8EAF
:102A40009E9C858080717B7267818D969784766D60
:102A5000716966838D98A3918283736E8779717A89
:102A6000839E9A836762756B73858596A093827F38
:102A7000807F807F807F80807F807F7F7F7F7F7F60
:102A80007F80808080808080808080808080808047
:102A90008080808080808080808080808080808036
:102AA0008080808080808080808080808080808026
:102AB0008080808080808080808080808080808016
:102AC0008080808080808080808080808080808006
:102AD00080808080808080808080808080808080F6
:102AE00080808080808080808080808080808080E6
:102AF00080808080808080808080808080808080D6
:102B000080808080808080808080808080808080C5
:102B100080808080808080808080808080808080B5
:102B200080808080808080808080808080808080A5
:102B30008080808080808080808080808080808095
:102B40008080808080808080808080808080808085
:102B5000808011241FBECFE5D8E0DEBFCDBF10E0DE
:102B6000A0E6B0E0EAE9FDE302C005900D92AE3ABE
:102B7000B107D9F710E0AEEAB0E001C01D92AD3B5D
:102B8000B107E1F70E94CB1D0C94CB1E0C94000002
:102B9000CF93DF93CDB7DEB78AE390E02FEFFC0150
:102BA000208387E390E021E0FC01208384E390E030
:102BB0002FEFFC01208381E390E02FEFFC012083C5
:102BC0008BE390E0FC01108288E390E0FC0110822E
:102BD00085E390E0FC01108282E390E0FC0110822A
:102BE000DF91CF910895CF93DF9300D01F92CDB79F
:102BF000DEB79A8389836B838B81882331F4898143
:102C00009A81FC01108281E010C08B81813039F4FF
:102C100089819A812FEFFC01208381E006C08981A0
:102C20009A812FEFFC01208380E00F900F900F908E
:102C3000DF91CF910895CF93DF9300D0CDB7DEB76A
:102C400089836A838981882F90E0AA2797FDA095C0
:102C5000BA2F40E050E02FE130E0841B950B28179D
:102C6000390708F4F9C0865D9F4FFC010C94B11E32
:102C70008A818823D9F48AE390E02AE330E0F901DD
:102C80002081622F2981222F30E0A901477055272A
:102C900021E030E0042E02C0220F331F0A94E2F735
:102CA00020952623FC01208381E0D7C08A818130D2
:102CB000D1F48AE390E02AE330E0F9012081622F29
:102CC0002981222F30E0A9014770552721E030E00B
:102CD000042E02C0220F331F0A94E2F7262BFC01B8
:102CE000208381E0BAC080E0B8C08A818823D9F40B
:102CF00087E390E027E330E0F9012081622F29810A
:102D0000222F30E0A9014770552721E030E0042E42
:102D100002C0220F331F0A94E2F720952623FC01FC
:102D2000208381E09AC08A818130D1F487E390E0EA
:102D300027E330E0F9012081622F2981222F30E042
:102D4000A9014770552721E030E0042E02C0220F70
:102D5000331F0A94E2F7262BFC01208381E07DC01B
:102D600080E07BC08A818823D9F484E390E024E367
:102D700030E0F9012081622F2981222F30E0A90162
:102D80004770552721E030E0042E02C0220F331F88
:102D90000A94E2F720952623FC01208381E05DC0A0
:102DA0008A818130D1F484E390E024E330E0F901BA
:102DB0002081622F2981222F30E0A90147705527F9
:102DC00021E030E0042E02C0220F331F0A94E2F704
:102DD000262BFC01208381E040C080E03EC08A8138
:102DE0008823D9F481E390E021E330E0F9012081E8
:102DF000622F2981222F30E0A9014770552721E059
:102E000030E0042E02C0220F331F0A94E2F720950F
:102E10002623FC01208381E020C08A818130D1F407
:102E200081E390E021E330E0F9012081622F2981E4
:102E3000222F30E0A9014770552721E030E0042E11
:102E400002C0220F331F0A94E2F7262BFC012083D5
:102E500081E003C080E001C080E00F900F90DF911F
:102E6000CF910895CF93DF9300D01F92CDB7DEB7F7
:102E70009A8389836B8389819A812B81FC012083CA
:102E800081E00F900F900F90DF91CF910895CF9335
:102E9000DF9300D0CDB7DEB789836A838981882F1D
:102EA00090E0AA2797FDA095BA2F40E050E02FE1CF
:102EB00030E0841B950B2817390708F4F9C0865BAE
:102EC0009F4FFC010C94B11E8A818823D9F48BE3B7
:102ED00090E02BE330E0F9012081622F2981222F3D
:102EE00030E0A9014770552721E030E0042E02C0F0
:102EF000220F331F0A94E2F720952623FC0120833A
:102F000081E0D7C08A818130D1F48BE390E02BE35C
:102F100030E0F9012081622F2981222F30E0A901C0
:102F20004770552721E030E0042E02C0220F331FE6
:102F30000A94E2F7262BFC01208381E0BAC080E0EE
:102F4000B8C08A818823D9F488E390E028E330E090
:102F5000F9012081622F2981222F30E0A9014770D9
:102F6000552721E030E0042E02C0220F331F0A94BF
:102F7000E2F720952623FC01208381E09AC08A8114
:102F80008130D1F488E390E028E330E0F90120813A
:102F9000622F2981222F30E0A9014770552721E0B7
:102FA00030E0042E02C0220F331F0A94E2F7262BD2
:102FB000FC01208381E07DC080E07BC08A81882382
:102FC000D9F485E390E025E330E0F9012081622F18
:102FD0002981222F30E0A9014770552721E030E0F8
:102FE000042E02C0220F331F0A94E2F720952623F5
:102FF000FC01208381E05DC08A818130D1F485E3CA
:1030000090E025E330E0F9012081622F2981222F11
:1030100030E0A9014770552721E030E0042E02C0BE
:10302000220F331F0A94E2F7262BFC01208381E054
:1030300040C080E03EC08A818823D9F482E390E0DA
:1030400022E330E0F9012081622F2981222F30E034
:10305000A9014770552721E030E0042E02C0220F5D
:10306000331F0A94E2F720952623FC01208381E098
:1030700020C08A818130D1F482E390E022E330E005
:10308000F9012081622F2981222F30E0A9014770A8
:10309000552721E030E0042E02C0220F331F0A948E
:1030A000E2F7262BFC01208381E003C080E001C011
:1030B00080E00F900F90DF91CF910895CF93DF9331
:1030C00000D01F92CDB7DEB789837B836A83898165
:1030D0000F900F900F90DF91CF910895CF93DF93D2
:1030E00000D01F92CDB7DEB789837B836A83898145
:1030F000882F90E0AA2797FDA095BA2F40E050E0D6
:103100002FE130E0841B950B2817390708F463C0C2
:1031100086599F4FFC010C94B11E89E390E0FC019D
:103120008081882F90E02981222F30E002C0959580
:1031300087952A95E2F7282F21708A819B81FC01CF
:10314000208381E049C086E390E0FC018081882FE4
:1031500090E02981222F30E02770332702C0959517
:1031600087952A95E2F7282F21708A819B81FC019F
:10317000208381E031C083E390E0FC018081882FCF
:1031800090E02981222F30E02770332702C09595E7
:1031900087952A95E2F7282F21708A819B81FC016F
:1031A000208381E019C080E390E0FC018081882FBA
:1031B00090E02981222F30E02770332702C09595B7
:1031C00087952A95E2F7282F21708A819B81FC013F
:1031D000208381E001C080E00F900F900F90DF917D
:1031E000CF910895CF93DF931F92CDB7DEB7898338
:1031F0008AE390E0FC0180818F3F09F043C081E3C6
:1032000090E0FC018081882F90E09C0121703327A1
:1032100081E390E0FC0180818695882F90E08170A9
:1032200099272823392381E390E0FC01808186954A
:103230008695882F90E0817099278223932381308F
:10324000910501F560E082E00E94471760E080E0B0
:103250000E94471760E081E00E944717698182E37E
:1032600090E00E94321761E082E00E94471762E01E
:1032700070E080E090E00E94711B60E082E00E94BC
:10328000471703C081E08093AE0080E00F90DF918C
:10329000CF910895CF93DF931F92CDB7DEB7898387
:1032A0008AE390E0FC0180818F3F09F043C081E315
:1032B00090E0FC018081882F90E09C0121703327F1
:1032C00081E390E0FC0180818695882F90E08170F9
:1032D00099272823392381E390E0FC01808186959A
:1032E0008695882F90E081709927822393238130DF
:1032F000910501F560E082E00E94471761E080E0FF
:103300000E94471760E081E00E944717698182E3CD
:1033100090E00E94321761E082E00E94471762E06D
:1033200070E080E090E00E94711B60E082E00E940B
:10333000471703C081E08093AE0080E00F90DF91DB
:10334000CF910895CF93DF93CDB7DEB76FEF8AE3C8
:1033500090E00E94F3156FEF81E390E00E94F31577
:1033600062E370E080E090E00E94711B88E30E94BD
:10337000F21862E070E080E090E00E94711B8CE047
:103380000E94F21862E070E080E090E00E94711B01
:1033900081E00E94F21863E081E00E94281A80E335
:1033A0000E944A1980E30E944A198AE30E944A193E
:1033B00080E30E944A1980E30E944A198AE30E942E
:1033C0004A1980E30E944A1980E30E944A1960E08A
:1033D00082E00E94281A8DE990E00E94FE1980E0A8
:1033E000DF91CF910895CF93DF93CDB7DEB781E022
:1033F0000E94F21880E0DF91CF910895CF93DF9380
:1034000000D01F92CDB7DEB79B838A8319820EC08E
:103410008981882F90E02A813B81820F931FFC01D4
:1034200080810E944A1989818F5F89838981882FD1
:1034300090E02A813B81820F931FFC0180818823C9
:1034400039F780E00F900F900F90DF91CF910895A2
:10345000CF93DF9300D01F92CDB7DEB78A836B8303
:103460008B818031C0F48A81813039F48B8180680E
:10347000898389810E94F21811C08A81823039F4CF
:103480008B81806C898389810E94F21807C081E05A
:103490008093AE0003C081E08093AE0080E00F9087
:1034A0000F900F90DF91CF910895CF93DF93CDB719
:1034B000DEB780E40E94F21880E0DF91CF9108959A
:1034C000CF93DF93CDB7DEB780E80E94F21880E09B
:1034D000DF91CF910895CF93DF93CDB7DEB70E94F0
:1034E000741ADF91CF910895CF93DF93CDB7DEB7F4
:1034F00028970FB6F894DEBF0FBECDBF8091600055
:10350000282F30E084E090E0B9010E947B1E682FF4
:1035100080E10E941C1B80916000282F30E085E034
:1035200090E0B9010E947B1E682F81E10E941C1B64
:1035300080916000282F30E086E090E0B9010E9481
:103540007B1E682F82E10E941C1B80916000282F47
:1035500030E087E090E0B9010E947B1E682F83E194
:103560000E941C1B809160008F5F8093600080919F
:103570006000883019F484E08093600080E0289631
:103580000FB6F894DEBF0FBECDBFDF91CF91089587
:10359000CF93DF93CDB7DEB729970FB6F894DEBF90
:1035A0000FBECDBF82E0898384E0898339C08981E1
:1035B000282F30E084E090E0B9010E947B1E682F44
:1035C00080E10E941C1B8981282F30E085E090E07B
:1035D000B9010E947B1E682F81E10E941C1B89811A
:1035E000282F30E086E090E0B9010E947B1E682F12
:1035F00082E10E941C1B8981282F30E087E090E047
:10360000B9010E947B1E682F83E10E941C1B68EE9B
:1036100073E080E090E00E94711B89818F5F898355
:103620008981883020F229960FB6F894DEBF0FBE4C
:10363000CDBFDF91CF910895CF93DF9300D0CDB769
:10364000DEB789836A838A81882329F460E08981CF
:103650000E94471707C08A81882321F061E0898191
:103660000E94471780E00F900F90DF91CF9108954F
:10367000CF93DF93CDB7DEB782E590E020ECFC017D
:10368000208383E590E023E530E0F901208121608B
:10369000FC01208389E590E029E530E0F9012081F3
:1036A0002160FC0120838FE590E02FE530E0F901F7
:1036B00020812068FC012083DF91CF910895CF9372
:1036C000DF93CDB7DEB70E94C8150E94381BFFCF2D
:1036D000CF93DF93CDB7DEB70E94C8150E94381B89
:1036E000FFCFCF93DF93CDB7DEB728970FB6F8940F
:1036F000DEBF0FBECDBF6D837E838F83988725C0CD
:1037000019821A821B821C820CC0000089819A8156
:10371000AB81BC810196A11DB11D89839A83AB83C6
:10372000BC8389819A81AB81BC818F369105A105CB
:10373000B10558F38D819E81AF81B8850197A109AC
:10374000B1098D839E83AF83B8878D819E81AF81C0
:10375000B8850097A105B10599F628960FB6F8949B
:10376000DEBF0FBECDBFDF91CF910895CF93DF9322
:1037700000D0CDB7DEB768E081E00E94281A8091C2
:10378000AF008F5F8093AF009091AF0089E8989F62
:10379000812D11248295869587702CE3829F802D40
:1037A0001124292F281B822F8093AF009091AF0006
:1037B0008DEC989F812D1124869586958695898319
:1037C0009091AF008DEC989F812D11248695869560
:1037D0008695880F282F220F220F820F292F281B52
:1037E000822F8A838AE30E944A198981805D0E9420
:1037F0004A198A81805D0E944A198091BA008130FD
:1038000031F460E083E00E9447171092BA000F90F5
:103810000F90DF91CF910895CF93DF9300D0CDB774
:10382000DEB765E081E00E94281A8091B000909197
:10383000B10001969093B1008093B0004091B00028
:103840005091B1009A01A9E8B8E80E946C1E9695C3
:103850008795929582958F7089279F7089276CE351
:10386000689F9001699F300D1124CA01821B930B40
:103870009093B1008093B0008091B0009091B1001E
:103880009C01ADECBCEC0E946C1E969587959695BC
:1038900087959695879589834091B0005091B100A6
:1038A0009A01ADECBCEC0E946C1E9695879596959E
:1038B000879596958795880F991F9C01220F331F36
:1038C000220F331F820F931F9A01281B390BC90146
:1038D0008A838AE30E944A198981805D0E944A197D
:1038E0008A81805D0E944A1961E083E00E94471747
:1038F0008091BA008F5F8093BA000F900F90DF9194
:10390000CF910895CF93DF93CDB7DEB72E970FB643
:10391000F894DEBF0FBECDBF63E081E00E94281A9D
:103920008091B2009091B300A091B400B091B50025
:103930000196A11DB11D8093B2009093B300A09396
:10394000B400B093B5008091B2009091B300A09103
:10395000B400B091B5002CE030E040E050E0BC0194
:10396000CD010E948F1EDC01CB018093B2009093A9
:10397000B300A093B400B093B5008091B2009091D1
:10398000B300A091B400B091B5002AE030E040E06F
:1039900050E0BC01CD010E948F1EDA01C90189836C
:1039A0008091B2009091B300A091B400B091B500A5
:1039B0002AE030E040E050E0BC01CD010E948F1EC3
:1039C000DC01CB018A838981805D0E944A198A814A
:1039D000805D0E944A198091BA00882349F461E011
:1039E00088E00E9447178091BA008F5F8093BA00E9
:1039F0002E960FB6F894DEBF0FBECDBFDF91CF91EC
:103A00000895CF93DF93CDB7DEB72E970FB6F89416
:103A1000DEBF0FBECDBF66E082E00E94281A809113
:103A2000B6009091B700A091B800B091B90001968E
:103A3000A11DB11D8093B6009093B700A093B8006C
:103A4000B093B9008091B6009091B700A091B800F2
:103A5000B091B9002FE130E040E050E0BC01CD0171
:103A60000E948F1EDC01CB018093B6009093B700BB
:103A7000A093B800B093B9008091B6009091B700C0
:103A8000A091B800B091B9002AE030E040E050E0E9
:103A9000BC01CD010E948F1EDA01C901898380918A
:103AA000B6009091B700A091B800B091B9002AE09B
:103AB00030E040E050E0BC01CD010E948F1EDC01EF
:103AC000CB018A838AE30E944A198981805D0E9422
:103AD0004A198A81805D0E944A192E960FB6F89481
:103AE000DEBF0FBECDBFDF91CF910895CF93DF939F
:103AF000CDB7DEB7DF91CF910895CF93DF93CDB7E8
:103B0000DEB70E94741ADF91CF9108951F920F9231
:103B100000905F000F9211242F933F934F935F9378
:103B20006F937F938F939F93AF93BF93EF93FF9385
:103B3000CF93DF93CDB7DEB78091BB009091BC00EF
:103B400001969093BC008093BB008091BB00909144
:103B5000BC008F31910559F40E94D61D82E590E09A
:103B600020ECFC0120831092BC001092BB00DF917E
:103B7000CF91FF91EF91BF91AF919F918F917F91E5
:103B80006F915F914F913F912F910F9000925F0045
:103B90000F901F901895CF93DF93CDB7DEB70E949B
:103BA000C8150E94A2190E94381BFFCFCF93DF9344
:103BB0001F92CDB7DEB7198287C08981882F90E028
:103BC000880F991F9C01220F331F220F331F820F72
:103BD000931F8B599F4FFC0180819181A281B381FA
:103BE0000097A105B10509F041C08981882F90E0B7
:103BF000880F991F9C01220F331F220F331F820F42
:103C0000931F87599F4FFC0180819181FC01099589
:103C10008981682F70E08981882F90E0880F991F33
:103C20009C01220F331F220F331F820F931F8F59C6
:103C30009F4FFC0180819181A281B3819C01AD01E4
:103C40002150310941095109CB01880F991FBC014D
:103C5000660F771F660F771F860F971F8B599F4F31
:103C6000FC0120833183428353832BC08981682FD9
:103C700070E0CB01880F991F9C01220F331F220F88
:103C8000331F820F931F8B599F4FFC0180819181BD
:103C9000A281B3819C01AD01215031094109510933
:103CA000CB01880F991FBC01660F771F660F771F26
:103CB000860F971F8B599F4FFC01208331834283CE
:103CC000538389818F5F89838981863008F475CF1A
:103CD0000F90DF91CF910895A29FB001B39FC001D3
:103CE000A39F700D811D1124911DB29F700D811D28
:103CF0001124911D089597FB072E16F4009407D008
:103D000077FD09D00E94B71E07FC05D03EF49095C0
:103D100081959F4F0895709561957F4F0895A1E219
:103D20001A2EAA1BBB1BFD010DC0AA1FBB1FEE1F35
:103D3000FF1FA217B307E407F50720F0A21BB30B80
:103D4000E40BF50B661F771F881F991F1A9469F7FC
:103D500060957095809590959B01AC01BD01CF0158
:103D60000895EE0FFF1F0590F491E02D0994AA1B12
:103D7000BB1B51E107C0AA1FBB1FA617B70710F056
:103D8000A61BB70B881F991F5A95A9F78095909588
:0A3D9000BC01CD010895F894FFCFA7
:103D9A000402000000020000007D1DB2010000B212
:103DAA00010000B61BB8650000B86500000C1C20B5
:103DBA00D7170020D71700821C002B3C02002B3C8F
:103DCA0002011D000A0D43000A0D43761D444154A9
:0E3DDA00453A2031352F30322F32303137004C
:00000001FF
