:100000000C948A000C9494000C9494000C9494002A
:100010000C9494000C9494000C9494000C94940010
:100020000C9494000C9494000C9494000C94940000
:100030000C9494000C9494000C9494000C949400F0
:100040000C9494000C9494000C9494000C949400E0
:100050000C94940006010601060106010601060142
:1000600006010601430143014301430143014301EA
:1000700043014301800180018001800180018001F2
:1000800080018001BD01BD01BD01BD01BD01BD01FA
:10009000BD01BD01320232023202320232023202AC
:1000A000320232026F026F026F026F026F026F0242
:1000B0006F026F02AC02AC02AC02AC02AC02AC024A
:1000C000AC02AC02E902E902E902E902E902E90252
:1000D000E902E9025B035B035B035B035B035B0316
:1000E0005B035B037103710371037103710371039C
:1000F00071037103890389038903890389038903D0
:1001000089038903A103A103A103A103A103A103FF
:10011000A103A10311241FBECFE5D8E0DEBFCDBFF0
:100120000E94D3040C940A050C940000CF93DF9333
:10013000CDB7DEB78AE390E02EEFFC01208387E3A2
:1001400090E0FC01108284E390E02FE0FC0120832A
:1001500081E390E0FC0110828BE390E021E0FC0160
:10016000208388E390E0FC01108285E390E0FC01AD
:10017000108282E390E0FC01108281E0DF91CF9158
:100180000895CF93DF9300D01F92CDB7DEB79A8347
:1001900089836B838B81882331F489819A81FC0167
:1001A000108281E010C08B81813039F489819A817D
:1001B0002FEFFC01208381E006C089819A812FEF17
:1001C000FC01208380E00F900F900F90DF91CF9182
:1001D0000895CF93DF9300D0CDB7DEB789836A83CC
:1001E0008981882F90E0AA2797FDA095BA2F40E03B
:1001F00050E02FE130E0841B950B2817390708F4F5
:10020000F9C0865D9F4FFC010C94F0048A8188231D
:10021000D9F48AE390E02AE330E0F9012081622FEB
:100220002981222F30E0A9014770552721E030E0D5
:10023000042E02C0220F331F0A94E2F720952623D2
:10024000FC01208381E0D7C08A818130D1F48AE328
:1002500090E02AE330E0F9012081622F2981222FEA
:1002600030E0A9014770552721E030E0042E02C09C
:10027000220F331F0A94E2F7262BFC01208381E032
:10028000BAC080E0B8C08A818823D9F487E390E0BF
:1002900027E330E0F9012081622F2981222F30E00D
:1002A000A9014770552721E030E0042E02C0220F3B
:1002B000331F0A94E2F720952623FC01208381E076
:1002C0009AC08A818130D1F487E390E027E330E05F
:1002D000F9012081622F2981222F30E0A901477086
:1002E000552721E030E0042E02C0220F331F0A946C
:1002F000E2F7262BFC01208381E07DC080E07BC0FB
:100300008A818823D9F484E390E024E330E0F90182
:100310002081622F2981222F30E0A90147705527C3
:1003200021E030E0042E02C0220F331F0A94E2F7CE
:1003300020952623FC01208381E05DC08A818130E5
:10034000D1F484E390E024E330E0F9012081622FCE
:100350002981222F30E0A9014770552721E030E0A4
:10036000042E02C0220F331F0A94E2F7262BFC0151
:10037000208381E040C080E03EC08A818823D9F498
:1003800081E390E021E330E0F9012081622F2981AF
:10039000222F30E0A9014770552721E030E0042EDC
:1003A00002C0220F331F0A94E2F720952623FC0196
:1003B000208381E020C08A818130D1F481E390E004
:1003C00021E330E0F9012081622F2981222F30E0E2
:1003D000A9014770552721E030E0042E02C0220F0A
:1003E000331F0A94E2F7262BFC01208381E003C02F
:1003F00080E001C080E00F900F90DF91CF910895D1
:10040000CF93DF9300D01F92CDB7DEB79A83898355
:100410006B8389819A812B81FC01208381E00F907D
:100420000F900F90DF91CF910895CF93DF9300D07D
:10043000CDB7DEB789836A838981882F90E0AA27A8
:1004400097FDA095BA2F40E050E02FE130E0841BEB
:10045000950B2817390708F4F9C0865B9F4FFC01FC
:100460000C94F0048A818823D9F48BE390E02BE389
:1004700030E0F9012081622F2981222F30E0A9018B
:100480004770552721E030E0042E02C0220F331FB1
:100490000A94E2F720952623FC01208381E0D7C04F
:1004A0008A818130D1F48BE390E02BE330E0F901D5
:1004B0002081622F2981222F30E0A9014770552722
:1004C00021E030E0042E02C0220F331F0A94E2F72D
:1004D000262BFC01208381E0BAC080E0B8C08A816D
:1004E0008823D9F488E390E028E330E0F901208103
:1004F000622F2981222F30E0A9014770552721E082
:1005000030E0042E02C0220F331F0A94E2F7209538
:100510002623FC01208381E09AC08A818130D1F4B6
:1005200088E390E028E330E0F9012081622F2981FF
:10053000222F30E0A9014770552721E030E0042E3A
:1005400002C0220F331F0A94E2F7262BFC012083FE
:1005500081E07DC080E07BC08A818823D9F485E377
:1005600090E025E330E0F9012081622F2981222FDC
:1005700030E0A9014770552721E030E0042E02C089
:10058000220F331F0A94E2F720952623FC012083D3
:1005900081E05DC08A818130D1F485E390E025E37C
:1005A00030E0F9012081622F2981222F30E0A9015A
:1005B0004770552721E030E0042E02C0220F331F80
:1005C0000A94E2F7262BFC01208381E040C080E002
:1005D0003EC08A818823D9F482E390E022E330E0B0
:1005E000F9012081622F2981222F30E0A901477073
:1005F000552721E030E0042E02C0220F331F0A9459
:10060000E2F720952623FC01208381E020C08A8127
:100610008130D1F482E390E022E330E0F9012081DF
:10062000622F2981222F30E0A9014770552721E050
:1006300030E0042E02C0220F331F0A94E2F7262B6B
:10064000FC01208381E003C080E001C080E00F90C6
:100650000F90DF91CF910895CF93DF9300D01F9239
:10066000CDB7DEB789837B836A8389810F900F9032
:100670000F90DF91CF910895CF93DF9300D01F9219
:10068000CDB7DEB789837B836A838981882F90E029
:10069000AA2797FDA095BA2F40E050E02FE130E067
:1006A000841B950B2817390708F463C086599F4FA0
:1006B000FC010C94F00489E390E0FC018081882F18
:1006C00090E02981222F30E002C0959587952A95E8
:1006D000E2F7282F21708A819B81FC01208381E031
:1006E00049C086E390E0FC018081882F90E0298159
:1006F000222F30E02770332702C0959587952A95E1
:10070000E2F7282F21708A819B81FC01208381E000
:1007100031C083E390E0FC018081882F90E0298143
:10072000222F30E02770332702C0959587952A95B0
:10073000E2F7282F21708A819B81FC01208381E0D0
:1007400019C080E390E0FC018081882F90E029812E
:10075000222F30E02770332702C0959587952A9580
:10076000E2F7282F21708A819B81FC01208381E0A0
:1007700001C080E00F900F900F90DF91CF9108950E
:10078000CF93DF93CDB7DEB70E94C903DF91CF913E
:100790000895CF93DF93CDB7DEB729970FB6F894BE
:1007A000DEBF0FBECDBF82E0898384E0898339C07C
:1007B0008981282F30E084E090E0B9010E94DC04B8
:1007C000682F80E10E9472048981282F30E085E043
:1007D00090E0B9010E94DC04682F81E10E9472045C
:1007E0008981282F30E086E090E0B9010E94DC0486
:1007F000682F82E10E9472048981282F30E087E00F
:1008000090E0B9010E94DC04682F83E10E94720429
:1008100060E971E080E090E00E948E0489818F5F42
:1008200089838981883020F280E029960FB6F89478
:10083000DEBF0FBECDBFDF91CF910895CF93DF9381
:10084000CDB7DEB729970FB6F894DEBF0FBECDBF88
:1008500082E0898384E0898339C08981282F30E050
:1008600084E090E0B9010E94DC04682F80E10E94DE
:1008700072048981282F30E085E090E0B9010E9460
:10088000DC04682F81E10E9472048981282F30E006
:1008900086E090E0B9010E94DC04682F82E10E94AA
:1008A00072048981282F30E087E090E0B9010E942E
:1008B000DC04682F83E10E94720468EE73E080E03C
:1008C00090E00E948E0489818F5F898389818830BE
:1008D00020F229960FB6F894DEBF0FBECDBFDF9190
:1008E000CF910895CF93DF9300D0CDB7DEB7898342
:1008F0006A838A81882329F460E089810E94150235
:1009000007C08A81882321F061E089810E94150255
:1009100080E00F900F90DF91CF910895CF93DF93F8
:10092000CDB7DEB728970FB6F894DEBF0FBECDBFA8
:100930006D837E838F83988725C019821A821B82DC
:100940001C820CC0000089819A81AB81BC81019618
:10095000A11DB11D89839A83AB83BC8389819A8150
:10096000AB81BC818F369105A105B10558F38D810E
:100970009E81AF81B8850197A109B1098D839E83BE
:10098000AF83B8878D819E81AF81B8850097A1051F
:10099000B10599F628960FB6F894DEBF0FBECDBF0D
:1009A000DF91CF910895CF93DF93CDB7DEB70E944B
:1009B00096000E94C903FDCF97FB072E16F4009402
:1009C00007D077FD09D00E94F60407FC05D03EF45D
:1009D000909581959F4F0895709561957F4F0895EB
:1009E000EE0FFF1F0590F491E02D0994AA1BBB1B8D
:1009F00051E107C0AA1FBB1FA617B70710F0A61B1F
:100A0000B70B881F991F5A95A9F780959095BC013F
:080A1000CD010895F894FFCF19
:00000001FF
